:020000041000EA
:10000000002008205D0100101B0100101D010010E0
:100010001101001011010010110100101101001058
:100020001901001019010010190100101F01001022
:10003000110100101901001021010010230100100E
:100040001101001011010010110100101101001028
:100050001101001011010010110100101101001018
:100060001101001011010010110100101101001008
:1000700011010010110100101101001011010010F8
:1000800011010010110100101101001011010010E8
:1000900011010010110100101101001011010010D8
:1000A00011010010110100101101001011010010C8
:1000B00011010010110100101101001011010010B8
:1000C00011010010110100101101001011010010A8
:1000D0001101001011010010110100101101001098
:1000E0001101001011010010110100101101001088
:1000F0001101001011010010110100101101001078
:100100001101001011010010110100101101001067
:10011000EFF30580103800BE00BE00BE00BE00BE7A
:1001200000BE00BEF2EB8871C0061010E006101091
:10013000A001001090A31AE7D3DEFFFF42012110B7
:10014000FF010000181B1000793512AB4FF00000C2
:100150001E49086006C881F3088810474FF05040D8
:10016000006810B14FF00000F2E70DA40ECC00299A
:1001700002D000F012F8F9E71549164A002000E015
:1001800001C19142FCD11449884714498847144958
:10019000884700BEFDE701C901C29A42FBD3704700
:1001A000E00610101001002080160020501C1010D6
:1001B0000000082000000820501C1010001008202B
:1001C00000100820000000007047000008ED00E06B
:1001D0008016002044330020F55D0010ED03001070
:1001E000ED5D0010F8B500BF0348044B834202D018
:1001F000034B03B11847704780160020801600207B
:1002000000000000064B0749C91A891048BF013198
:10021000491003D0044B0BB101481847704700BF89
:1002200080160020801600200000000010B5064C4B
:10023000237843B9FFF7D8FF044B13B10448AFF359
:1002400000800123237010BD181900200000000059
:1002500054C9001008B5044B1BB104490448AFF35E
:100260000080BDE80840CDE7000000001C19002018
:1002700054C900102DE9F04F002083B001F048F977
:10028000002001F08DF8002001F050F942F21078C2
:10029000DFF8A8A00CF02CF881460CF029F84342B6
:1002A000C3F30903C0F3090458BF5C420CF020F803
:1002B000204BC71783FB00230344C7EB2327C7EB5F
:1002C0000717A0EB47170CF013F84FF0C80B8AFB89
:1002D0000032C317C3EBA2130BFB1300451C0CF039
:1002E00007F806468AFB06CE4FEAE67CCCEBAE1C4E
:1002F0000BFB1C661FFA89F101362B463A46019129
:100300000D482146009605F067FF4FF0000C1FFADC
:1003100089F933462A4639462046CDE9009C01F04A
:100320002FF9B8F10108B5D103B0BDE8F04F01F0E5
:100330004DB800BF89888888F8C900101F85EB5127
:100340002DE9F04300274FF4C07487B0002001F07E
:10035000DFF8002001F0EAF84FF4F0734FF4806208
:1003600039463846CDE9004701F00AF94FF4F0204C
:1003700001F0DCF84FF4F0734FF4806239463846F0
:10038000CDE9004701F0FCF84FF4702001F0DCF8F3
:100390004FF4F0253C46B846DFF84C90284601F073
:1003A000E1F80021A9FB0706360A08464FF4F0736E
:1003B0004FF448720294CDE90088CDF8108003967E
:1003C00001F03EF9103401F009F8284601F0A0F8D8
:1003D00001F064F8B4F54C7FC5F5F02507F5F0574A
:1003E000DCD107B0BDE8F0831F85EB512DE9F84F54
:1003F00005F02CFE01F098F900F0D0FE08F064FB47
:1004000040F6B83003F062FD002000F0C9FF4FF461
:100410008065A5F58064C4F3440004F03F0340EA1E
:10042000431343EAC020013400F0C8FFAC42F2D1CC
:10043000651CB5F5BC6FECD100F0C8FF012000F0E1
:10044000C9FFDFF8A0B1DFF8A0A1DFF8A09112E0AA
:1004500010F002045FD110F0040627D110F0080557
:1004600077D110F0100466D19B0600F1988001F05E
:100470009BF90028FBD101F097F910F00105034624
:10048000E6D00121002008F011FB4C4805F022FEC7
:1004900000F0BEFD00284AD0494805F01BFE00F0E0
:1004A000E9FD0021084608F001FBE0E7454805F0BA
:1004B00011FE0121204608F0F9FA434805F00AFE32
:1004C000204601F025F8204600F06AFFA0B2013472
:1004D00000F074FFB4F5F02FF8D13C4805F0FAFDB8
:1004E000002000F05DFF0024394D00F06BFFA2B248
:1004F0009042034603D02146284605F06DFE0134A4
:10050000B4F5F02FF1D1334805F0E4FD00210846A1
:1005100008F0CCFAABE70121284608F0C7FA2E48CC
:1005200005F0D8FD2946284608F0C0FA9FE72B4879
:1005300005F0D0FDB5E7504605F0CCFD2846012179
:1005400008F0B4FAFFF796FE2946284608F0AEFAFE
:100550008DE7484605F0BEFD0121304608F0A6FAB9
:100560004FF470271E4DDFF88880384600F018FFE2
:10057000A5F5C86434F8020F00F020FFA542F9D1B8
:1005800006F54876464507F5806705F5C865ECD160
:1005900000F01CFF4FF4702000F0BAFF81E75846CE
:1005A00005F098FD2046012108F080FAFFF7C8FE0B
:1005B0002146204608F07AFA59E700BF3CCA0010ED
:1005C00050CA001098CA001058C900107CC9001009
:1005D000A4C90010E0C9001084CA00106CCA001041
:1005E00062D90010DCCA0010C4CA0010ACCA0010E6
:1005F00000DC05000FB42DE9F04FC9B0529A002A73
:1006000061D053AB4FF4807108A8079305F0AEFB9F
:10061000002858DDAC4800F097FF002000F0A2FF52
:100620009DF82060002E4ED0A84DA94CDFF8A4A262
:1006300008AF2BE003EB83039B009BB2203EB6B2D6
:10064000632E3CD83220AAFB06C1090900FB1166C3
:1006500006EB860601EB8101B000890080B20093B1
:100660000026142302EB8202920092B2CDE90336F7
:10067000019202931A4600F0E3FF238801339BB2F4
:10068000272B25D8238017F8016FE6B10D2EFAD05D
:100690000A2E2A884FD0092E238853D0272BC9D958
:1006A0004FF00008162AA4F8008000F2DB80203EFC
:1006B0000132B6B292B2632E43462A80C2D90021DB
:1006C0004FF41B70CBE749B0BDE8F04F04B0704762
:1006D0002B882680162B2BD900264FF4E6784FF472
:1006E0004879002000F030FF002000F03BFF434637
:1006F0004A4614213046CDE90386CDE901690096CA
:1007000000F09EFF00F06AFE304600F00FFF142359
:100710004A4641463046CDE9006600F031FF00F020
:100720005DFE694800F010FF304600F01BFFAAE7AD
:1007300001332B80A7E70023162A2380CCD801326F
:100740002A80A0E700264FF01408DFF87C91272BC1
:1007500029881FD91629268053D80022013189B251
:10076000298001EB8101890089B21423CDE90118A8
:100770000021009208461A46CDE9038600F060FF8A
:10078000238801339BB2272B09D8990723803FF494
:100790007AAF298803EB83039A0092B2E1E72B88B2
:1007A0002680162BC4D9002000F0CEFE002000F0D9
:1007B000D9FE4FF4E67B4FF4487214215B46CDE935
:1007C00001620020CDE903B6009600F039FF00F089
:1007D00005FE002000F0AAFE14234FF4487259468B
:1007E0000020CDE9006600F0CBFE00F0F7FD4846A2
:1007F00000F0AAFE002000F0B5FE23889A07A6D1DB
:1008000041E7002000F0A0FE002000F0ABFE4FF416
:10081000E67B4FF4487214215B46CDE9016200206B
:10082000CDE903B6009600F00BFF00F0D7FD0020E5
:1008300000F07CFE4FF44872594614230020CDE9A5
:10084000006600F09DFE00F0C9FD484600F07CFE09
:10085000002000F087FE2288298802EB82029200A5
:1008600092B27EE74FF4E6794FF4487B404600F0C1
:100870006BFE404600F076FE14214B465A46404639
:10088000CDE90398CDE9018BCDF8008000F0D8FECA
:1008900000F0A4FD404600F049FE14235A464946A4
:1008A0004046CDE9008800F06BFE00F097FD064859
:1008B00000F04AFE404600F055FE23882A8803EBEC
:1008C00083039B009BB2B9E600603F0036330020F3
:1008D000343300201F85EB512DE9F04383B080466F
:1008E000894603F081FB4FF0FF356FF00042274C43
:1008F000274F041941F10006A54272EB06033CBFE5
:100900002C461646FF2508E003F06EFB201A66EB26
:100910000101012871F1000133DB012338460DF19B
:1009200007020DF106018DF806508DF807500BF007
:10093000BBFF9DF80730FF2BE6D0FE2B21D14B46A5
:100940004246FF2112480BF0C7FF0DF107020DF1DF
:10095000060101230E488DF806508DF807500BF064
:10096000A3FF01230DF107020DF1060108488DF8E0
:1009700006508DF807500BF097FF012003B0BDE83B
:10098000F083002003B0BDE8F08300BF400D0300FA
:1009900000800840F0B509234FF0000283B042EC1C
:1009A0004030FF2401230DF107020DF10601254817
:1009B0008DF806408DF807400BF076FF03F014FB2E
:1009C0004FF0FF356FF000421F4C1E4F041941F1EC
:1009D0000006A54272EB06033CBF2C461646FF25D7
:1009E0000FE0012338460DF107020DF106018DF8E5
:1009F00006508DF807500BF057FF9DF80730FF2B7E
:100A00001DD003F0F1FA201A66EB0101012871F103
:100A10000001E6DA09234FF0010242EC4030FF24E6
:100A200001230DF107020DF1060106488DF806407D
:100A30008DF807400BF038FF002003B0F0BD012017
:100A400003B0F0BD0080084020A10700F0B5030608
:100A500005460E4683B000F18A8009234FF001025B
:100A600042EC4030FF2401230DF107020DF1060195
:100A70004C488DF806408DF807400BF015FFFFF746
:100A800089FF00287DD0002D6FD0082D0CBF87274F
:100A90000127FF2445F040038DF806300DF10702D1
:100AA00001230DF106013F488DF807400BF0FCFED5
:100AB000320E01238DF806200DF106010DF107021B
:100AC00038488DF807400BF0EFFE320C01238DF80B
:100AD00006200DF106010DF1070232488DF807409E
:100AE0000BF0E2FE320A01238DF806200DF106011B
:100AF0000DF107022B488DF807400BF0D5FE0123BE
:100B00000DF107020DF1060126488DF806608DF8FB
:100B100007400BF0C9FE012322480DF107020DF139
:100B200006018DF806708DF807400BF0BDFE0C2D08
:100B30002AD00A24FF251B4E01230DF1070230465F
:100B40000DF106018DF806508DF807500BF0ACFE44
:100B50009DF907209DF80700002A04F1FF3302DA0F
:100B600013F0FF04E8D103B0F0BD952791E7002111
:100B70003720FFF76BFFC0B20128F4D805F07F05DE
:100B80006BE7204603B0F0BD01230DF107020DF124
:100B9000060104488DF806408DF807400BF084FEEE
:100BA000C7E700BF0080084008B1012070472DE969
:100BB000F047CB4C074684B0CA48FFF71BFD2378AB
:100BC000CBB9C949C94807F0A3FE0121082002F0AA
:100BD00091F801210A2002F08DF801210B2002F08A
:100BE00089F8092002F024F90123092243EC44206A
:100BF00043EC40202370BC49BC4807F003FF0923A5
:100C00004FF0010242EC40301424FF25B74E01237F
:100C100030460DF10F020DF10E018DF80E508DF8DA
:100C20000F500BF041FE013CF1D1B14E04E00A201F
:100C300003F04CF9142C7BD000210846FFF706FF87
:100C400005460134214630462A46FFF7D3FC012DE4
:100C5000EDD14FF4D5710820FFF7F8FE0446A54802
:100C60002146FFF7C7FC012C6DD00021A920FFF71A
:100C7000EDFE0446A0482146FFF7BCFC012C40F3E2
:100C80002981A846A94603F0AFF94FF0FF376FF06E
:100C900000429A4C041941F10006A74272EB060388
:100CA0003CBF3C461646964F0CE000214046FFF7FD
:100CB000CDFE8246294638465246FFF79BFCBAF1E4
:100CC000000F08D003F090F9201A66EB010101280B
:100CD00071F10001E9DAB9F1020F00F02781012773
:100CE000884A09230125177045EC4030FF242B4624
:100CF0007E480DF10F020DF10E018DF80E408DF8BA
:100D00000F400BF0D1FD804C002F00F0DE802378E7
:100D10007E4903F0FE037548237007F073FE3946E1
:100D20007B48FFF767FC2078C0B204B0BDE8F087CD
:100D30000123754C77482370FFF75CFC2078C0B224
:100D400004B0BDE8F087FF2523460DF10F020DF139
:100D50000E0166488DF80E508DF80F500BF0A4FD73
:100D600023460DF10F020DF10E0160489DF80F6052
:100D70008DF80E508DF80F500BF096FD23460DF1B7
:100D80000F020DF10E0159489DF80F808DF80E509D
:100D90008DF80F500BF088FD23460DF10F020DF179
:100DA0000E0152489DF80F408DF80E508DF80F50EF
:100DB0000BF07AFD9DF80F504246314623465648C7
:100DC0000095FFF717FC012C7BD1AA2D79D103F0F8
:100DD0000BF94FF0FF326FF00043484C4F4E0419AF
:100DE00041F10005A24273EB05013CBF14461D46CC
:100DF0000CE04FF08041A920FFF728FE80463046E6
:100E00004146FFF7F7FBB8F1000F08D003F0ECF80C
:100E1000201A65EB0101012871F10001E9DA0021D6
:100E20003A20FFF713FE04463D482146FFF7E2FB58
:100E3000002C7FF455AFFF2401230DF10F020DF1BB
:100E40000E012A488DF80E408DF80F400BF02CFD56
:100E500001230DF10F020DF10E0124489DF80F50F2
:100E60008DF80E408DF80F400BF01EFD01230DF1A3
:100E70000F020DF10E011D489DF80F608DF80E4018
:100E80008DF80F400BF010FD01230DF10F020DF155
:100E90000E0116489DF80F708DF80E408DF80F402A
:100EA0000BF002FD9DF80F103B460091324629469B
:100EB0001C48FFF79FFB15F0400F0CBF04270C27C1
:100EC0000EE71948FFF796FB0AE712482570FFF76F
:100ED00091FB28E7A9254FF00209A846D3E600BFF9
:100EE0003E330020F4CA0010A086010000800840B4
:100EF00010CB00104CCB0010FCCB001040420F0078
:100F000024CC00103C3300208814002020BCBE00FC
:100F100044CC00102CCB001064CB001088CB001008
:100F2000A4CB0010BCCB0010DCCB00104FF4007140
:100F30001020FFF78BFDB0FA80F77F097F00CFE626
:100F400018B9034B1878C0B270470120704700BF32
:100F50008814002070B582B000283BD11C46002BBD
:100F600038D0274B1E7816F0010637D1254B0D4699
:100F70001B781B0758BF5202012C114632D0122099
:100F8000FFF764FDB8B1012609234FF0010242ECDE
:100F90004030FF2401230DF107020DF106011A482C
:100FA0008DF806408DF807400BF07EFC304602B00D
:100FB00070BD013C09D028464FF40071FFF78CFC4E
:100FC00005F500750028F4D1012600210C20FFF75B
:100FD0003DFDD9E70426304602B070BD03263046F9
:100FE00002B070BD1120FFF731FD0028CBD14FF4C6
:100FF00000712846FFF770FCB0FA80F67609C3E767
:10100000881400203C3300200080084002207047F4
:1010100010B51148FFF7EEFA0020FFF7C5FD0446B2
:101020000E482146FFF7E6FAE3070FD401220C49E8
:101030000C4801F01FFD04460B482146FFF7DAFA81
:10104000B4FA84F0094B4009187010BD0848FFF746
:10105000D1FA002010BD00BF74CC001088CC001065
:1010600078CD0010942C0020D0CC00103D3300200F
:10107000ACCC0010184B1B782BB330B5D3B06846FE
:10108000164901F037FD08BB154D164C0CE09DF8D4
:1010900046309BB19DF838300DF14601DB064CBF60
:1010A00020462846FFF7A6FA68460CA901F072FD13
:1010B0000028ECD001460C48FFF79CFA684601F086
:1010C00051FD53B030BD0948FFF794BA01460848B6
:1010D000FFF790FA53B030BD3D330020F8CC00103C
:1010E00034CD00102CCD001014CD0010E4CC001035
:1010F000FCCC0010032200232DE9F04383B08DF8CF
:1011000005208DF807308DF8060002F06DFF4CF2D7
:1011100050334FF0FF346FF0004210EB030841F101
:101120000006444572EB060338BF16464FF000092F
:1011300038BFA046174F184C7B6A9E4207D8BA6A40
:10114000424502D303B0BDE8F0839E42FAD10525A3
:1011500049EC405001220DEB050120460BF0D0FB7D
:101160000DF10601012220460BF0CAFB01232046A7
:101170000DEB05010DF107020BF096FB4FF001039B
:1011800043EC40509DF80730DB07DBD4012002F030
:101190009DFED1E700000B4000000840F8B5022793
:1011A000184C1949204607F0B3FB184B62685F6082
:1011B0002368174E174D83F007033A4003F0CF031F
:1011C000336001216A60042001F094FD01210620B2
:1011D00001F090FD0121072001F08CFD052001F0B8
:1011E00027FE05234FF0010242EC443042EC403030
:1011F000032001F01DFE03234FF0000242EC4430B7
:10120000F8BD00BF0000084080F0FA02003008403E
:1012100000100840002008402DE9F04383B0074645
:101220000D464FF00508FFF765FF4FF0000343EC54
:1012300040800124134E22460DF1070130468DF8FF
:1012400007400BF05DFB22460DF1070130468DF89B
:1012500007700BF055FB22460DF1070130468DF863
:1012600007500BF04DFB2D0A224630460DF10701C9
:101270008DF807500BF044FB44EC408003B0BDE810
:10128000F08300BF00000840F0B583B00446FFF7CC
:1012900031FF002305228DF80330ADF8043043EC14
:1012A0004020022301220DEB03013B488DF8023060
:1012B0000BF026FB01220DF1020137488DF80240A8
:1012C0000BF01EFB02F090FE4CF250334FF0FF3556
:1012D0006FF00042C61841F10004B54272EB0403FE
:1012E00038BF14464FF0504738BF2E462B4D6B6A1F
:1012F0009C420CD8AA6AB24207D305234FF00102E0
:1013000042EC4030AA2003B0F0BD9C42F5D17B688E
:101310001A0704D46420002102F0C0FDE7E701238E
:1013200001AA0DF103011C480BF0BEFA02F05CFEAD
:101330004CF250334FF0FF356FF00042C61841F1C8
:101340000004B54272EB040338BF14464FF0504717
:1013500038BF2E46114D6B6A9C4204D8AA6AB2422D
:10136000CBD29C42C9D17B681B0704D464200021E6
:1013700002F094FDEFE70DF1050201230DF10301E9
:1013800005480BF091FA05234FF0010242EC403082
:10139000BDF8040003B0F0BD0000084000000B40A1
:1013A00010B50446C020A1B2FFF736FFC4F30541D3
:1013B000C120BDE81040FFF72FBF00BF0146C2208B
:1013C000FFF72ABFC220FFF75FBF00BF0121C32084
:1013D000FFF722BF01460220FFF71EBF70B502F0E3
:1013E00003FE4FF0FF346FF00042274D451941F1E5
:1013F0000006AC4272EB06033CBF16462546234C62
:101400002620FFF741FFC2070DD5626A964235D804
:10141000A16AA94201D2964230D0034626221C4935
:101420001C4804F0D9FE02F0DFFD4FF0FF346FF0EE
:101430000042154D451941F10006AC4272EB06031E
:101440003CBF16462546114C4920FFF71DFFC30738
:1014500019D5626A96420CD8A16AA94201D2964275
:1014600007D0BDE87040034649220B49094804F003
:10147000B3BE3220002102F011FDE5E73220002149
:1014800002F00CFDBCE770BDC0C62D0000000B4093
:1014900038CD001044CD00107CCD001070B5012176
:1014A0000520FFF7B9FE02F09FFD4FF0FF346FF00B
:1014B0000042134D451941F10006AC4272EB0603A0
:1014C0003CBF164625460F4C0520FFF7DDFEC3073F
:1014D00014D5626A96420CD8A16AA94201D29642FA
:1014E00007D0BDE87040034605220749074804F0CD
:1014F00073BE3220002102F0D1FCE5E770BD00BFD1
:10150000C0C62D0000000B4088CD001044CD001057
:1015100010B504460020A1B2FFF77EFEC4F30541DA
:101520000120BDE81040FFF777BE00BF10B50446AC
:101530002720A1B2FFF770FEC4F305412820BDE8C3
:101540001040FFF769BE00BF10B504464A20A1B2A3
:10155000FFF762FEC4F305414B20BDE81040FFF7E2
:101560005BBE00BF10B504464C20A1B2FFF754FE8D
:10157000C4F305414D20BDE81040FFF74DBE00BF4C
:101580002DE9F04F83B0BDF8344017469A460194D8
:1015900081468846BDF830B002F026FD4FF0FF3698
:1015A0006FF00042224C041941F10005A64272EB93
:1015B00005033CBF154634461E4E2620FFF764FE49
:1015C000C3070DD5726A95422CD8B16AA14201D2E7
:1015D000954227D0034626221749184804F0FCFDFF
:1015E0001FFA89F12020FFF717FE1FFA88F121204A
:1015F000FFF712FEB9B22220FFF70EFE1FFA8AF1A2
:101600002320FFF709FE59462420FFF705FE019924
:101610002520FFF701FE0121262003B0BDE8F04F91
:10162000FFF7FABD3220002102F038FCC5E700BF09
:10163000C0C62D0000000B409CCD001044CD001012
:101640002DE9F04F85B0DDE90EB40094109C1646EC
:101650000194119C1D460294BDF8484080460394B5
:101660000F4602F0C1FC4FF0FF346FF000422A4BEE
:1016700010EB030941F1000A4C4572EB0A033CBF31
:101680009246A146254C4920FFF7FEFDC3070DD524
:10169000636A9A453AD8A26A4A4501D29A4535D03A
:1016A000034649221E491F4804F096FD1FFA88F19F
:1016B0004020FFF7B1FDB9B24120FFF7ADFDB1B257
:1016C0004220FFF7A9FDA9B24320FFF7A5FD1FFAAD
:1016D0008BF14420FFF7A0FDBDF800104520FFF777
:1016E0009BFDBDF804104620FFF796FDBDF80810DD
:1016F0004720FFF791FD03994820FFF78DFD012159
:10170000492005B0BDE8F04FFFF786BD322000212B
:1017100002F0C4FBB7E700BFC0C62D0000000B40BD
:10172000B4CD001044CD001038B5102001F080FB7E
:101730000024102044EC44000121224601F0F8FA74
:10174000112001F075FB112044EC440001212246D8
:1017500001F0EEFA122001F06BFB122044EC440081
:101760000121224601F0E4FA132001F061FB13206D
:1017700044EC44000121224601F0DAFA142001F081
:1017800057FB142044EC44000121224601F0D0FA1A
:10179000152001F04DFB152044EC440001212246A8
:1017A000BDE8384001F0C4BA4FF0504358685B6858
:1017B00080F480309A034FF050435B68C0F30040E0
:1017C00058BF40F002005B034FF050435B6858BFC6
:1017D00040F0040019034FF050435B6858BF40F0DD
:1017E0000800DA024FF050435B6858BF40F0100029
:1017F0009B0258BF40F02000704700BF00232DE936
:10180000F04706688B758269002A00F0A380C26ADF
:10181000054601320C4600F09F80F2681088E8B15E
:101820001F464FF00208994637B900F520539BB286
:10183000B3F5006FC0F0AC8040F2B51140EA07404C
:1018400001F0D4F9FF28C9F1FF0A40F28C80BAF107
:10185000010F00F29F804FF0000A0FB14FF0000A15
:101860000023A2448AF81630E869A17D0378202B72
:1018700077D0052B08BFE523012263724378202B24
:1018800005D0052B08BFE523A5186B7201328378BC
:10189000202B05D0052B08BFE523A5186B7201325C
:1018A000C378202B05D0052B08BFE523A5186B7244
:1018B00001320379202B05D0052B08BFE523A5189D
:1018C0006B7201324379202B05D0052B08BFE5232D
:1018D000A5186B7201328379202B05D0052B08BF28
:1018E000E523A5186B720132C579202D00F0958093
:1018F000052D08BFE525A618531C7572027A202A0B
:1019000009D0052A08BFE5222E275D1CE6182544CC
:10191000777202336A72427A202A70D0052A08BF91
:10192000E522E5186A72827A0133202A3BD0052A23
:1019300008BFE522002523449D725A72002937D042
:10194000C37A03F03F032372C3692360C38AE38031
:10195000038BA380BDE8F087E86919460378202B44
:1019600087D100228AE7E0B1BAF1000F3FF475AFEA
:10197000012304EB090290750027F268994432F8BC
:10198000080008F1020800287FF44EAFCA4664E759
:101990000746F4E704EB0902030A9375D0750223A6
:1019A000EAE7824659E7002223445A720029C7D148
:1019B000637AE3B1082504F109020CE0192903F167
:1019C000200603D8017B0D4200D0F3B25373537845
:1019D000511C53B10A462E2BA3F14101EED1537392
:1019E00053781025511C002BF4D1131B083B002207
:1019F00023449A75037B002BA2D16372A0E7827AFD
:101A0000202A94D10025E2185572002998D1002B84
:101A1000CED13F220123A275E9E713466EE700BF4E
:101A2000426B8A4201D10020704770B504460379A9
:101A30000D46407804F138065BB92A460123314649
:101A4000FFF788FA00281CBF4FF0FF3501206563BF
:101A500070BD01233146FFF7D9FA88B9616BA36ADB
:101A6000226ACB1A934220716078E6D2E378022B87
:101A7000E3D10A4401233146FFF7C8FA6078DCE776
:101A8000012070BD012919D9C269F8B591420C46EF
:101A9000064611D20278022A21D0032A10D0012A48
:101AA0000AD1816A04EB540501EB5521FFF7B8FF19
:101AB00010B34FF0FF30F8BD0120F8BD0120704792
:101AC000816A01EBD411FFF7ABFF0028F1D1A4002C
:101AD00004F4FE743319986B20F07040F8BD816AED
:101AE00001EB1421FFF79CFF0028E2D1600000F415
:101AF000FF703044008FF8BDB16A6F1CC5F3080554
:101B00003544304601EB572195F83850FFF788FFF0
:101B10000028CED1C7F30807374497F8383045EA94
:101B20000320E3074CBF0009C0F30B00F8BD00BF62
:101B30002DE9F041056904462035B5F5001F06681A
:101B400004D30023A3610420BDE8F0818369002B46
:101B5000F9D0C5F30807EFB941690133836101B3D7
:101B60007389013B13EA552814D13046FFF78AFFE9
:101B700001281DD9431C19D0F3699842E1D2023BD8
:101B800060610238984203D27289336B00FB0238DD
:101B9000C4F8188038363E4400202561E661BDE86F
:101BA000F0813389B3EB551FF4D8CAE70120CBE7A6
:101BB0000220C9E770B54FF0FF360023B14204465A
:101BC0000371466330D194F83830B4F83652EB2BB9
:101BD0000AD01833DBB2012B06D94AF655208542CC
:101BE0000CBF0220032070BD4AF655239D4209D048
:101BF000B4F843305A1E1A4202D1B3F5007F21D007
:101C0000032070BD0822244904F18A000AF00AFD6D
:101C10000028E8D0B4F843305A1E1A4202D1B3F576
:101C2000007F31D0022070BD0D460A460123407866
:101C300004F13801FFF78EF910B10420666370BD1E
:101C40006563C0E794F84530002BD9D05A1E1A427C
:101C5000D6D1B4F84630002BBFD094F84830013BC1
:101C6000012BBAD8B4F84930002BB6D0B4F84B30B9
:101C70007F2B03D8A36DB3F5803FAED3B4F84E30BD
:101C8000002BAAD0002070BD94F84530002BC9D09D
:101C90005A1E1A42C6D1DCE7CCCD0010F8B500239D
:101CA00004680B60002C00F0B180264602E03A2B5D
:101CB00000F0A48016F8013B1F2BF8D88F4B1B783F
:101CC0008F4850F82340002C00F0B1800C6023783E
:101CD000607802F0FE0553B1FFF732F9C20705D470
:101CE00015B1430700F1A1800020F8BD6078002302
:101CF0002370FEF759FFC70700F18A8015B1460728
:101D000000F1938000212046FFF754FF022867D09E
:101D1000042800F0888001286ED8B4F84330616B45
:101D2000B3F5007F68D1B4F84E0000B9E06D94F8C7
:101D300048202062531E012BE2705DD894F8453094
:101D40006381002B58D05D1E1D4255D1B4F8496007
:101D50003507268150D1B4F84B5005B9A56DB4F8BC
:101D600046C0BCF1000F47D000FB02F20CEB161787
:101D70001744BD4240D3ED1B9D42B5FBF3FE3BD360
:101D8000604B9E4538D80CEB01034FF6F57CE645D9
:101D90000F440EF1020576D840F6F57CE645616207
:101DA0002763E561A36263D936B31A4402236D0049
:101DB00005F2FF15B0EB552FE2621DD34FF0FF3255
:101DC0008021C4E90422617100214F4A23701388E5
:101DD0004E4801339BB21380E380E060A16183E74A
:101DE000D4F8FE11D4F80E62D4F81E52D4F82E7234
:101DF000F9B936BB75BB6FB90D20F8BD2378303B00
:101E0000DDB2092D02D80234A6422DD00B20F8BD38
:101E10000320F8BD39462046FFF7CCFE01287FF6A7
:101E20007CAF0428E8D10120F8BD0A20F8BD0C20C1
:101E3000F8BD2046FFF7BEFE01287FF66EAF002EEC
:101E4000D8D031462046FFF7B5FE01287FF665AFB2
:101E5000002DD0D029462046FFF7ACFE01287FF6A2
:101E60005CAF002FC8D0D5E7032BCFDC066027E797
:101E7000002EC1D01A4405EB450305F0010505EB22
:101E80005305012394E7A362B4F862302763334318
:101E9000E5616162B0D1AB00626E03F2FF13B0EB9B
:101EA000532FE262A8D34FF0FF338020B4F86820AC
:101EB000C4E90433012A607101D0032384E720467A
:101EC0000131FFF7ADFD0028F7D14AF65522B4F8ED
:101ED000361260719142F0D1A26B0D4B9A42ECD157
:101EE00003F1FF53D4F81C2203F5005320339A4228
:101EF00004BFD4E98823C4E90432DEE73833002084
:101F0000041C0020F5FFFF0F2E330020141C0020BE
:101F1000525261412DE9F04FD0F818B004460768DD
:101F200083B0BBF1000F33D04FF0FF0AD04607F16A
:101F300038097A6B5A4514D03B797878002B77D1E1
:101F400001235A464946FFF705F840B14FF0FF33E9
:101F50007B6301200023A36103B0BDE8F08FC7F8C5
:101F600034B0E1690A789AB1CB7AE52A03F03F03ED
:101F7000A37105D02E2A03D023F02000082846D1D3
:101F80004FF0FF0825692035B5F5001F266801D3FD
:101F90000420DFE7D4F818B0BBF1000FF8D0C5F388
:101FA000080323B138361E442561E661C1E7616943
:101FB0000BF1010BC4F818B051B93389B3EB551FBD
:101FC000E6D938362561E661BBF1000FB1D1D6E024
:101FD0007389013B13EA5523F3D130460193FFF790
:101FE00051FD012840F2CD80431CB2D0F2699042ED
:101FF000CED2023A606102389042019B80F0BB80F1
:102000007289336B00FB023BC4F818B0D9E70F2B81
:1020100040F00C815006256924D591F80DA0E562A9
:102020004B7B02F0BF08534521D04FF0FF08AAE7D1
:1020300001234946FEF7EAFF00288AD1796BBB6A83
:102040003A6ACB1A934238717878BFF479AFFB784B
:10205000022B7FF475AF0A4401234946FEF7D6FFF1
:1020600078786DE74245E0D14B7B5345DDD14B8B12
:10207000002BDAD10B7823F04003013B03EB430242
:1020800003EB8203FF2BB1F80120CED8F8684FEAAA
:10209000430C20F81320B1F80360002A73D0FF2B03
:1020A00003F10102C1D020F81260B1F805E052003E
:1020B000002E6FD0FE2BB8D00244A2F802E0B1F897
:1020C0000760BEF1000F6CD0FD2BAED09680B1F84A
:1020D00009E0002E6CD0FC2BA7D0A2F806E0CE8938
:1020E000BEF1000F6AD0FB2B9FD01681B1F810E033
:1020F000002E6AD0FA2B98D0A2F80AE04E8ABEF1E0
:10210000000F68D0F92B90D09681B1F814E0002E22
:1021100068D0F82B89D0A2F80EE0CE8ABEF1000F6D
:1021200066D0F72B81D01682B1F818E0002E66D069
:10213000F62B3FF47AAFA2F812E08E8BBEF1000FBF
:1021400063D0F52B3FF471AF9682B1F81EE0002EFC
:1021500062D0F42B3FF469AFA2F816E00A78520679
:102160005FD5BEF1000F5CD0F32B3FF45EAF0023D0
:102170006044438355E03836A3612561E661002061
:10218000EAE60220E6E64FF6FF739E427FF44DAF8B
:10219000B1F805E04FF6FF739E457FF446AFB1F806
:1021A00007604FF6FF739E427FF43FAFB1F809E03E
:1021B0004FF6FF739E457FF438AFCE894FF6FF731D
:1021C0009E427FF432AFB1F810E04FF6FF739E45A8
:1021D0007FF42BAF4E8A4FF6FF739E427FF425AFFC
:1021E000B1F814E04FF6FF739E457FF41EAFCE8A20
:1021F0004FF6FF739E427FF418AFB1F818E04FF628
:10220000FF739E457FF411AF8E8B4FF6FF739E4296
:102210007FF40BAFB1F81EE04FF6FF739E457FF4DD
:1022200004AF08F1FF385FFA88F8ACE6B8F1000FA8
:1022300048D10B78DA0142EA53024B781A44C2F3D0
:10224000460343EAC2138A7852FA83F3C3F3460281
:1022500042EAC312CB7853FA82F2C2F3460343EA4E
:10226000C2130A7952FA83F3C3F3460242EAC31255
:102270004B7953FA82F2C2F3460343EAC2138A79D6
:1022800052FA83F3C3F3460242EAC312CB7953FAFC
:1022900082F2C2F3460343EAC2130A7A52FA83F384
:1022A000C3F3460242EAC3124B7A897A53FA82F2A6
:1022B000C2F3460343EAC21351FA83F3DBB29A45F1
:1022C0003FF45DAF4FF0FF33E36258E72DE9F84389
:1022D000002384680646076803618CB93B78022BAB
:1022E0000AD83B895BB3FB6AC6E905433BB3383781
:1022F0000020F761BDE8F883FB6A002BF1D01C4693
:102300007B89002B5FD1012C19D03D46EB69A3429C
:1023100015D92B78022B2BD0032B13D0012B0ED1E8
:10232000A96A04EB5408284601EB5821FFF778FB13
:1023300060B30120BDE8F8830023C6E9054302200D
:10234000BDE8F883A96A284601EBD411FFF768FBC2
:102350000028EED1A30003F4FE732B449C6B24F001
:102360007044012CEBD9FB69A342E8D93568CDE76D
:10237000A96A284601EB1421FFF752FB0028D8D1A7
:10238000630003F4FF732B441C8FEAE7A96A08F18A
:102390000109C8F30808A844284601EB592198F818
:1023A0003880FFF73DFB0028C3D1C9F30809A944D1
:1023B00099F8383048EA0328E3074CBF4FEA18146D
:1023C000C8F30B04CDE7FA69A11E023A9142B3D2D9
:1023D0003A6B01FB032387E72DE9F04F87B00446F2
:1023E0000668FFF773FF8146E0B94FF0FF0B4FF02F
:1023F000FF375D46D4F818A006F13808E762726B23
:10240000524515D033797078002B40F0908001232D
:1024100052464146FEF79EFD40B14FF0FF337363D5
:102420004FF00109484607B0BDE8F08FC6F834A068
:10243000E269117899B1D37AE52903F03F00A071E0
:1024400003D01B072AD50F283BD0FF25E76223695D
:1024500022682033B3F5001F07D30023A3614FF098
:102460000409484607B0BDE8F08FD4F818A0BAF1C7
:10247000000FF4D0C3F30809B9F1000F09D1616965
:102480000AF1010AC4F818A071BB1189B1EB531FFE
:10249000E3D938324A442361E261B0E70F2810D013
:1024A000002D5FD094F82B5015F00105CDD11046CA
:1024B00004F120010B220AF0B5F80028C5D1A94685
:1024C000B0E794F82B305B06C1D4480640F1958004
:1024D000236992F80DB001F0BF01E362537B5B45C5
:1024E00000F09080FF25B2E75089013810EA5320B0
:1024F000CFD1104601930092FFF7C4FA012840F2B1
:10250000BD80431C8CD0009AD1698842A5D2023983
:102510006061023888422EBFCA46B2F80AC0116B09
:10252000019B38BF00FB0C1AC4F818A0B1E70123C7
:102530004146FEF76BFD00287FF472AF716BB36A02
:10254000326ACB1A934230717078BFF460AFF3787F
:10255000022B7FF45CAF0A4401234146FEF756FD8F
:10256000707854E713785078D90141EA5301014457
:10257000C1F34603907843EAC11350FA83F3C3F3DF
:102580004601D07841EAC31150FA81F1C1F3460304
:10259000107943EAC11350FA83F3C3F3460150792B
:1025A00041EAC31150FA81F1C1F34603907943EA3D
:1025B000C11350FA83F3C3F34601D07941EAC31142
:1025C00050FA81F1C1F34603107A43EAC11350FA7D
:1025D00083F3C3F34601507A41EAC31150FA81F103
:1025E000C1F34603907A43EAC11350FA83F3DBB296
:1025F0009B457FF457AFA94614E78D423FF46EAF79
:10260000FF2524E7538B002B7FF46CAF1578DFF8A0
:10261000989005F03F05013D05EB450305EB83056B
:10262000F368CDE900B6029401201E4614460593D6
:1026300009F10D0A0491CDF80C8010E0FF2D18D897
:10264000404600F003FB834636F8150000F0FEFA22
:10265000834505F101050CD14046CA4511D019F852
:10266000013B34F803800028E8D14FF6FF7398450A
:10267000F3D0DDE900B6DDE9024833E74FF00209A7
:10268000D0E62246DDE900B6DDE902481378049978
:102690005A0606D528B1059B33F81530002B7FF478
:1026A00021AF0139CDB2D2E6A48B0C102DE9F04F49
:1026B0000B780D462F2B0746D0F800B085B010D010
:1026C0005C2B0ED0DBF81830BB6028781F2816D89A
:1026D0008023384687F82B3005B0BDE8F04FFFF770
:1026E000F5BD2A46137815462F2B02F10102F9D0C9
:1026F0005C2BF7D00023BB6028781F28E8D95B4605
:10270000D3F80C9030B90023A9F80030062005B0AA
:10271000BDE8F08F0024DFF858830135A9F1020AE3
:1027200040F2B51100F07EFA06460028EED01F28D0
:1027300016D92F2800F080815C2800F07D817F2849
:1027400005D84046314609F045FE0028DED1FF2C71
:10275000DCD02AF8026F15F8010B01340028DFD114
:10276000012C4FF0040614D0022C40F07881B9F807
:1027700002302E2B00F0238109EB440232F8023D97
:10278000202B01D02E2B1ED1013CF7D1A9F80040FF
:10279000BCE7B9F800302E2BEED10023A9F80230A7
:1027A000202387F8213042F220037B843B854FF0C1
:1027B00020332E227B62202346F0200687F820203B
:1027C00087F82A305EE04FF0000329F81430B9F89A
:1027D000003009EB4401202B40F0B180002209F1C8
:1027E0000203184633F802CB9046BCF1200F02F1E9
:1027F0000102F6D008F1020846F003060B4601E09C
:10280000013C03D033F8022D2E2AF9D14FF02033AA
:102810007B623B62C7F827300188002900F0FC800A
:10282000082228464FF0000A25465B465446BB4620
:102830004F4691460246202952D02E2959D04C4568
:1028400065D3B9F10B0F00F0C380A84556D046F010
:10285000030653D95F469B4697F820301546E52B73
:1028600008BF05234A4608BF87F82030082A6DD0E4
:102870000AF00C030C2B03D00AF00303032B6DD1D9
:1028800046F00206384687F82B60FFF7A5FD97F85B
:102890002B3068B104287FF43AAF990603F00402A4
:1028A00040F1BE80CAB1802387F82B3000202EE78C
:1028B0005A07FBD4BB79DB0640F1B0803B699BF83B
:1028C0000010C3F308020BF13803134403295A8B99
:1028D00004BF9B8A42EA0342BA603B6828780FE74C
:1028E00046F0030637F8181008F101080029A2D1B4
:1028F000B0E7A845F4D1B9F10B0F69D04FEA8A0AC5
:10290000A8464FF00B0908245FFA8AFAEAE7A845BF
:10291000F1D07F2932D85448CDE90232019109F033
:1029200059FDDDE90113039A00283FD05F2146F0ED
:1029300003060BEB040080F820100134D2E72E2BA5
:1029400048464FF001087FF459AF55E74FEA8A0C2B
:102950000CF00C030C2B5FFA8CFA91D006F00203FA
:10296000002B8FD14AF3000303F010031E431AF02B
:10297000040F1CBF46F00806F6B283E7CDE901322A
:10298000084646F0020340F2B511039300F02EF919
:10299000DDE9013210F0800F014623D000F07F0105
:1029A0003248415C039E0029C0D0B4E7A1F1410048
:1029B00080B2192826D84AF0020AC9B2B9E7B9F894
:1029C00000302E2B7FF4D8AE0022A9F80420E8E6D0
:1029D0005F469B4697F820301546E52B28D046F0F9
:1029E000030645E7FF28DDD909F1FF3084421BD2F9
:1029F0000BEB04004FEA112C039E013480F820C039
:102A0000C9B296E7A1F1610080B219289CBF2039B4
:102A10004AF0010AC9B28CE78A469FE7052076E6AC
:102A2000002A08BF052072E64C4646F0030659E727
:102A3000052387F82030D2E72A46137815462F2B36
:102A400002F10102F9D05C2BF7D01F2B8CBF0023C1
:102A50000123012C4FEA83067FF486AE99E6002C11
:102A60007FF48AAE4FE600BFE4CD0010248B0C103B
:102A7000D8CD001010B582B0CDE9001081B310465A
:102A80008C4601E03A2B21D01CF8013B1F2BF9D8D2
:102A9000164B93F800E07346154951F823201AB1FC
:102AA0000024147041F82340019A2AB1002482F8CE
:102AB00001E041F82320147008B902B010BD0022D3
:102AC000684601A9FFF7EAF802B010BD0B78303B69
:102AD0005FFA83FEBEF1090F02D802318C4502D0A5
:102AE0000B2002B010BD032BD6DDF9E738330020F0
:102AF000041C002030B585B0019100282FD0044679
:102B0000002203A901A8FFF7C9F818B10023236028
:102B100005B030BD039D204601992560FFF7C6FD35
:102B2000C8B994F92B30002B0BDBA379DB0614D545
:102B30002978E2690329538B04BF928A43EA02434E
:102B4000A360EB882046A380FFF7C0FB042804D0D5
:102B50000028DDD0DAE70428D8D10520D6E70920FF
:102B600005B030BD98B1036810B504462BB11A7892
:102B70001AB18188DA88914201D0092010BD5878B5
:102B8000FEF7DEF910F00100F7D1206010BD09203A
:102B9000704700BF18B338B50368044633B11A78DC
:102BA00022B10D46DA888188914201D0092038BDD2
:102BB0005878FEF7C5F9C307F8D420468DB1FFF762
:102BC000A9F910F0FB0FF2D129462046FEF716FEB8
:102BD0002046FEF7ADFF042808BF002038BD0920BD
:102BE0007047BDE83840FFF771BB00BF7F2801D8B0
:102BF00080B27047B0F5803F03D240F2B5139942DE
:102C000001D0002070470023054A02E00133802BE9
:102C1000F7D032F8021B8142F8D1803398B2704766
:102C2000648E0C107F2804D940F2B513994201D06C
:102C300000207047FF28FBD8034B00F1004080388C
:102C400033F81000704700BF648E0C10B0F5803F61
:102C50001ED2264B264A30B584B2B4F5805F38BF09
:102C6000134604330DE08C4210D333F8022C5FFA84
:102C700082FC0CEB010E70454FEA122209DB043393
:102C800082B133F8041C1D460029ECD1204630BD2A
:102C90007047082AFAD8DFE802F0241E1B18151224
:102CA0000F0C080005EB4C03DBE7A4F5E354A4B2DA
:102CB000ECE7503CA4B2E9E70834A4B2E6E71A3CDA
:102CC000A4B2E3E7303CA4B2E0E7203CA4B2DDE7E5
:102CD000103CA4B2DAE7631A03F00103E31A9CB2D2
:102CE000D4E7401A33F81040D0E700BFB48B0C1083
:102CF000708C0C1010B44FF480740C4B53F82020DF
:102D000003EB8003C00082F0400200F1804003F535
:102D1000805C02F0C00200F5203003F54053CCF88F
:102D2000002041601C605DF8044B70470480034044
:102D300010B4084CC90041EA820154F8202004EB89
:102D40008003514003F5805301F00C015DF8044B02
:102D50001960704704800340064B022203EB800396
:102D600019B103F500531A60704703F540531A6018
:102D7000704700BF0480034070B44FF050460F4BC3
:102D800036680F4D00F0070C002E18BF2B46C00808
:102D90000C4C4FEA8C0C01FA0CF103EB80038C30E5
:102DA00044F8201022B170BC03F50053196070473D
:102DB00003F54053196070BC704700BF4882024061
:102DC00090820240008002402DE9F0414FF05048CF
:102DD0000D4FD8F80030164657F82320044602421B
:102DE0000D4609D114432946324647F823401520A1
:102DF000BDE8F04100F0D8B901F084FAD8F800300D
:102E000057F82320EEE700BF0033002010B504463A
:102E1000152000F0BDFA4FF05043044A196852F8EB
:102E2000213023EA040342F8213010BD0033002092
:102E300030B44FF0000343EC440043EC4000052560
:102E40004FF480740B4BC20053F8201003EB80004A
:102E500081F0400102F1804303F5203301F0C0020C
:102E600000F5805100F540500A605D60046030BCA0
:102E7000704700BF048003400FB400B583B0049CCA
:102E8000074803F027F93CB105A92046019102F05B
:102E900093FF044803F01EF9012002F0A5FF00BFD4
:102EA000ECCD0010DCC90010EFF3108072B6064BB9
:102EB000D3E8CF1F01220029FAD1C3E8412F00290E
:102EC000F6D1BFF35F8F7047FB1E00200023034A3B
:102ED000C2E88F3F80F31088704700BFFB1E0020C0
:102EE00070B58646EFF3108572B6124CD4E8CF6FFA
:102EF0000120002EFAD1C4E8460F002EF6D1BFF310
:102F00005F8F4FF0010CC80801F007030CFA03F3C0
:102F10001EF800C01CEA030608D14CEA030C0EF8A8
:102F200000C0C4E88F6F85F3108870BD1046FFF7AE
:102F3000A3FF00BFFB1E0020F8B5EFF3108572B6AB
:102F4000234CD4E8CF7F0126002FFAD1C4E8476F85
:102F5000002FF6D1BFF35F8F9A4227D80126D708FA
:102F600010F807E002F0070C06FA0CFC1EEA0C0F42
:102F700000EBD2070DD125E04FEAD20E10F80EE09B
:102F800002F0070C06FA0CFC1EEA0C0F00EBD2074D
:102F900018D001329342EFD24FF0FF300023C4E843
:102FA0008F3F85F31088984207DBF8BD0023C4E803
:102FB0008F3F85F310884FF0FF300029F5D0069839
:102FC000FFF75AFF4EEA0C0E104687F800E0E5E7DF
:102FD000FB1E002000B5EFF3108E72B6104BD3E845
:102FE000CFCF0122BCF1000FF9D1C3E84C2FBCF1C7
:102FF000000FF4D1BFF35F8F01224FEAD10C01F033
:10300000070102FA01F110F80C2022EA010200F88F
:103010000C200022C3E88F2F8EF310885DF804FB8C
:10302000FB1E0020044A1078431CDBB2182B28BF7B
:1030300010231370704700BF8914002010B5054C91
:1030400082B001461F23182200940348FFF774FF43
:1030500002B010BDFCCD0010442300204FF0E02250
:10306000936843F000539360704700BF0021044B06
:1030700003F12002C3E88F1F01339342FAD1704756
:10308000F01E00204FF0E0234FF08032C3F8002400
:10309000C3F80424C3F80824C3F80C24C3F810248C
:1030A000C3F81424C3F81824C3F81C24C3F820243C
:1030B000C3F82424C3F82824C3F82C24C3F83024EC
:1030C00062B67047012300F01F029340400941B1EE
:1030D000800000F1604000F56140C0F8803103607D
:1030E0007047024A203042F82030704700E100E08B
:1030F0000123064A410952F8212000F01F008340B5
:10310000134214BF01200020704700BF00E100E01F
:1031100001224309034900F01F008240403341F877
:103120002320704700E100E0054A10309268054B0B
:1031300052F82000C01A2F288CBF002001207047B1
:1031400000ED00E08C140020F8B50D46EFF3108779
:1031500072B6124ED6E8CF2F0123002AFAD1C6E864
:10316000423F002AF6D1BFF35F8F0D4B00F11004F0
:103170009B680C4A53F82430934203D0994201D003
:1031800001F0C0F8064B9B6843F82450BFF35F8FF3
:103190000023C6E88F3F87F31088F8BDF91E002092
:1031A00000ED00E0110100102DE9F04F81468B4643
:1031B000164683B0EFF3108372B6DFF8D0A1009308
:1031C000DAE8CF1F01230029FAD1CAE8413F0029DC
:1031D000F6D1BFF35F8F664B93F90040002CC0F22D
:1031E000A080644D04EB440705EB870898F80610AF
:1031F00009F110091970604BBF009B6853F8290052
:103200006300411B2F292FD95C49884240F0A480DC
:103210001C445B4B02372F44043BDB1BC3F34A03C4
:103220006FEAC3434FF421416FEAD34325F82410DA
:1032300005EB840463804BF60153A380FF2348F021
:103240000100E671C4F808B0A3714B4B9B6843F8CA
:103250002900BFF35F8F0023CAE88F3F009B83F3F1
:10326000108803B0BDE8F08F20F0010E9EF8071023
:10327000B1422ED84FF42143EB53414BB91C2944A2
:10328000043B04375B1A2F44AEF104013D4CC91BCB
:10329000C1F34A012143A8F80410C3F34A033A4991
:1032A0002343A8F802304AF6AA2073465B1B5B4111
:1032B0005843000D88F8076088F80600C8F808B081
:1032C00048F00100CEF80010BFE7D179B1422ED905
:1032D00096469EF906C00CEB4C02BCF1000F05EBC4
:1032E0008202F2DA4BF601510EF10402A8F1040752
:1032F000BF1AC7F34A076FEAC7476FEAD7478EF886
:10330000064003EB0408204C05EB8803AEF804707C
:1033100045F82840998083F806C0DE71C3F808B0EC
:1033200093E700F0EFFF124B93F9004059E7724624
:1033300032F8041F490514D44915023102EB41014A
:1033400001916FF00701C91B019F491B3944C1F36B
:103350004A0141F46041C9E7019300F0D3FF019BAA
:1033600056E701F5FF1101F5FF511F31E4E700BFFA
:103370003F3300208C14002000ED00E0110100100C
:10338000BC14002000E0FFFF01488047F91E002028
:103390002DE9F04F83B0EFF3108A72B6744ED6E881
:1033A000CF2F0123002AFAD1C6E8423F002AF6D1E6
:1033B000BFF35F8F6F4B00F110089B686E4A53F8A4
:1033C000285095423FD08D420C464AD06B4FEB1BA4
:1033D0002F2B38D801214FEA50194FEA890909F1FA
:1033E000604909F5614900F01F0301FA03F0D9F8BB
:1033F0000030C9F8800000EA030BBFF35F8FEFF3E2
:103400000581C9B279B3884577D125F0010EDEF880
:1034100008C0644505D17CE0D3F808C0644532D0CB
:103420009E469EF9062002EB4203002A07EB830327
:10343000F2DA644500F08180BBF1000F20D0C9F8BA
:103440008001C9F800004B4B9B6843F82850BFF33C
:103450005F8F0023C6E88F3F8AF3108803B0BDE872
:10346000F08F1546EFE725F0010EDEF808C0644541
:10347000D7D19EF906407346002C08DA154666E05F
:10348000C9F88000DFE793F90640002C56DB04EB17
:10349000440C07EB8C0CDCF8082061009A609CF867
:1034A0000720DA719CF90620002A9A715DDBBCF8CE
:1034B0000420520504D502F5FF1202F5FF521F3217
:1034C000521502F1020C4FF0040E0C2212FB04E222
:1034D00002EB4C026FF0070C3A44ACEB030C624475
:1034E000C2F34A0242F460429A80254B21441A7882
:1034F00007EB81011C708A719EE7CDE9000100F0A5
:1035000001FFDDE9000125F0010EDEF808C0644589
:1035100087D19EF906407346002CB8DA194A1A4C36
:10352000D21A083AC2F30A316FEA01516FEA115117
:1035300044EA5202DA8099807EE773460029EDD191
:10354000FF228EF806204BF60152AEF804200C4CF8
:103550004AF6AA2294F800C01946C91B49414A43B9
:10356000120D83F806C0227066E74BF60152BBE7E6
:10357000F91E002000ED00E0110100108C14002065
:103580003F330020C614002000F8FFFF4FF0FF0C6F
:1035900020F0030303F1604303F5644300F00300EC
:1035A0001A68C0000CFA00FC22EA0C0281400A43AF
:1035B0001A607047F0B5EFF30585EDB2EFF3108CAC
:1035C00072B62649D1E8CF2F0123002AFAD1C1E8EB
:1035D000423F002AF6D1BFF35F8F214E40F0010E2B
:1035E000B4684AF6AA2354F825701E4A0446A41A61
:1035F000644163431B0D77455BB21BD092F90640D3
:103600009C421CD092F912409C4223D092F91E4059
:103610009C4221D092F92A409C4208BF03240FD03B
:10362000114A0024157813708571C1E88F4F8CF30F
:103630001088F0BDB2680D4C42F82540F0E7002438
:1036400004EB440402EB8402FF2494714BF6015412
:103650009480E5E70124F3E70224F1E7F91E002056
:1036600000ED00E08C1400203F3300201101001019
:1036700001460248C1F13301FFF7ACBC43330020DF
:1036800010B5074C82B0014605230022009405487E
:10369000FFF752FC0028A8BFC0F1330002B010BDF4
:1036A00018CE00104333002070B504460E46154670
:1036B000FFF7B8FC0146204600F006F8A680E5803A
:1036C000BFF35F8F70BD00BF014B0B4403607047B9
:1036D000F01E002070B5104C104DAC420ED2FF26EB
:1036E000236863B1FFF79EFC01462046FFF7ECFF1D
:1036F000A680BFF35F8F0834AC42F1D370BDFFF7F3
:1037000091FC01462046FFF7DFFF2671BFF35F8F74
:103710000834AC42E4D370BD781600208016002037
:1037200010B50446FFF77EFC01462046FFF7CCFFAC
:10373000FF232371BFF35F8F10BD00BF10B5044698
:10374000FFF770FC01462046FFF7BEFFFF23A38072
:10375000BFF35F8F10BD00BF10B504460120FFF717
:103760006DFC034B03442360BFF35F8F10BD00BFAC
:10377000F01E0020024B0B440360BFF35F8F7047C5
:10378000F01E00200D4B1A68EFF3108172B6D2E8DC
:10379000CFCF0120BCF1000FF9D1C2E84C0FBCF132
:1037A000000FF4D1BFF35F8F00221B68C3E88F2F97
:1037B00081F3108840BF00200021704710330020A3
:1037C0002DE9F04F2DED028B85B0EFF30583DBB2D1
:1037D000103B9A0818BF01224FF0010103F00300CB
:1037E00018BFAF4DAF4B08BFAF4D00EB820253F88F
:1037F000226001FA00FB05F541539FEDA78B019074
:10380000C3F804B02EE0B388180440F19280B37975
:10381000002B40F0DC80B6F908100029C0F21D81B1
:10382000736901EB410103EBC103D3E90247B7F12F
:10383000FF3F08BFB4F1FF3F0DD0019B05EB8301B3
:10384000AB6A0A69D21AE31A934203D32B6A13EACA
:103850000B0F00D10C61284600F0BEFBA042B9411D
:10386000C0F2FB80B6F90830C5F83CB0002B0093DD
:10387000C9DBD6F8149003EB430A284609EBCA07C4
:10388000D7E9024800F0A8FBA04271EB0801BADBBF
:10389000B8F1000FC0F2C380D7E90431834A9342E4
:1038A00000F0ED807A88B6F9080092B242EA004052
:1038B000984702460B4652EA030100F0B080002B05
:1038C00080F2D180B4EB020E68EB030839F93A308C
:1038D000C7E902E8002B96DB716903EB430201EBB9
:1038E000C202D2E90270BE4578EB000C4FEA4302F7
:1038F00089DBB4462CF8083F0BE031F93230A4469E
:10390000002B0DDB03EB430001EBC0005A00D0E9B4
:103910000270BE451A4478EB000001EBC204ECDAF9
:1039200029F83A30009BACF80030B38818043FF512
:103930006EAF3369EFF3108272B6D3E8CF0F012177
:103940000028FAD1C3E8401F0028F6D1BFF35F8FEB
:103950004FF6FF74B0880023316900B2B480C1E82B
:103960008F3F82F310889842FFF651AF0746A94671
:10397000746906F1080807EB470E04EBCE03D3E9A0
:103980000250B6F90830C446002B13DBB24600974C
:1039900004E034F936309446002B09DB03EB430690
:1039A00004EBC602D2E90271BD4270EB0101F0DA0C
:1039B0005646009FACF8007034F93E7024F83E3053
:1039C000002FD8DAB3794D46002B3FF424AF002303
:1039D000B371B6F9083006F10808591C3DD01946F4
:1039E000776903E080465A1C3FF417AF03EB4302AC
:1039F00007EBC200B0F802C01C461CF4004F9E4604
:103A000037F93230EED08C4280ED028B05D0A8F829
:103A10000030318927F8321034817146E3E739F8F4
:103A20003A3033813369EFF3108272B6D3E8CF0FA7
:103A300001210028FAD1C3E8401F0028F6D1BFF3C6
:103A40005F8F7388316929F83A30009B73800023B7
:103A5000C1E88F3F82F31088D5E640BF05B0BDECCA
:103A6000028BBDE8F08F2846CDE9022300F0B4FABE
:103A7000029A039B10EB020E43EB010826E708466F
:103A80000B69029198470028C9D00299D1E9002317
:103A900011E700BFAFF30080FFFFFFFFFFFFFFFF55
:103AA00000800B40E032002000000B40C1370010C6
:103AB0002DE9F84F364C25692DB1BDE8F84F0A21A4
:103AC0003448FFF701BEDFF8E4800321404600F0F0
:103AD00071FA0326C4F80C80FFF7A4FA4FF0504C9B
:103AE0002D4B267003442361DCF800300F216370F6
:103AF000636961801D834FF00405A3F878504FF08F
:103B00000505A3F890504FF00605A3F8A8504FF014
:103B100007050E214FF6FF7208274FF00A0EA3F893
:103B2000C0504FF001094FF00C0C4FF0020B4FF05A
:103B3000090A0D204FF00B05A3F868111749A28060
:103B4000A3F808E1A160A3F848B0A3F8F0A0A3F897
:103B50002051A3F838C1A3F85001A3F83090A3F87E
:103B60006060A3F8D8701A800D4B3046C8F82070FA
:103B70000C49DC60FFF7E8FA49463046FFF7A2FA45
:103B8000094B0A211F640348BDE8F84FFFF79CBDAD
:103B9000D414002010330020F01E0020FFFF10007E
:103BA000E0320020C137001000200B4000000B4025
:103BB00000487047D4140020F8B59DF820700446E2
:103BC00016461D4637B900F00FFA864265EB010133
:103BD00000295CDB2369EFF3108772B6D3E8CF1FAF
:103BE00001220029FAD1C3E8412F0029F6D1BFF301
:103BF0005F8FB4F902C063690CEB4C01BCF1000F9C
:103C00004FEAC10203EBC10138DB985A4FF0000EB6
:103C100060802069C0E88FEF87F310880698C1E9BB
:103C2000026508610798486148880130C0F30E00BA
:103C3000012838BF0120488040EA0C402169EFF399
:103C4000108572B6D1E8CF7F0126002FFAD1C1E8E6
:103C5000476F002FF6D1BFF35F8FA1889952A4F868
:103C600004C02369C3E88FEF85F310880122E3685D
:103C7000217803F501538A405A60F8BD0023226978
:103C8000C2E88F3F87F310884FF0FF30F8BD384609
:103C9000F8BD00BF0146F0B50069EFF3108772B6BA
:103CA000D0E8CF5F0124002DFAD1C0E8454F002DA8
:103CB000F6D1BFF35F8FB1F902E04C690EEB4E0C09
:103CC000BEF1000F4FEACC0504EBCC0C3DDB605B92
:103CD000002648800869C0E88F6F87F31088BCF819
:103CE0000200CCE902230130C0F30E00012838BFE6
:103CF0000120059BACF80200CCF81030069B40EA8E
:103D00000E40CCF814300B69EFF3108272B6D3E892
:103D1000CFCF0127BCF1000FF9D1C3E84C7FBCF134
:103D2000000FF4D1BFF35F8F8B886353A1F804E0D9
:103D30000B69C3E88F6F82F310880122CB68097882
:103D400003F501538A405A60F0BD00230A69C2E8B6
:103D50008F3F87F310884FF0FF30F0BD0346408956
:103D6000B0EB214F37DD58690A1402EB420210B55F
:103D700000EBC2001C69EFF3108C72B6D4E8CFEFF1
:103D80000122BEF1000FF9D1C4E84E2FBEF1000FA1
:103D9000F4D1BFF35F8F428889B292B28A4207D0D2
:103DA00000221B69C3E88F2F8CF31088002010BD00
:103DB00042F4004242800121002218699971C0E852
:103DC0008F2F8CF310881C78DA68084602F50153AF
:103DD000A140596010BD0020704700BF4078704777
:103DE0002DE9F041861F41F1FF35B04271EB05032B
:103DF00038BF002682B038BF354604460F4600F073
:103E0000F3F8301A65EB0103012873F1000306DAB9
:103E10002046394602B0BDE8F04100F0EFB800F0AE
:103E2000E3F8864265EB010100290ADB0021174B0C
:103E30003246009316482B460191FFF72BFF0028CE
:103E4000E6DB4FF0000C1348134A436A9D4204D846
:103E5000816AB142DCD29D42DAD11368EFF310815E
:103E600072B6D3E8CF8F5FF0010EB8F1000FF8D132
:103E7000C3E848EFB8F1000FF3D1BFF35F8F1368C9
:103E8000C3E88FCF81F3108820BFDEE785370010AD
:103E9000D414002000000B401033002038B5044635
:103EA0000D4600F0A1F84FF0FF326FF000432018EC
:103EB00045EB0101824273EB010438BF1946BDE8AE
:103EC000384038BF1046FFF78BBF00BF10B504461F
:103ED00000F08AF84FF47A734FF0FF3C6FF0004225
:103EE000E4FB0301BDE81040844572EB01033CBFD5
:103EF00060461146FFF774BF2DE9F04306460D46B4
:103F000083B0EFF30584E4B23CB1274B586AA84272
:103F10001CD2002003B0BDE8F083244FD7F80C90EA
:103F200097F80080484600F057F808F1040859F85F
:103F300028301B1A301A65EB0101984271F100011B
:103F400011DB20BF184B586AA842E2D39B6AB342E8
:103F500003D3012003B0BDE8F083401B18BF01204C
:103F600003B0BDE8F08300F03FF8864265EB010145
:103F70000029CADB0E4B3846CDE9003432462B46C9
:103F8000FFF788FE011EC0DD074B5A6AAA4208D31C
:103F90009B6AB34203D30548FFF7E0FEB5E7AA42A8
:103FA000F9D120BFF7E700BF00000B40D414002078
:103FB0008537001010B4054B054C064AA04214BFCB
:103FC0001846581C5DF8044BFEF78ABF48230020B2
:103FD00000800B4034CE00100346416A0A46986ABE
:103FE000596A8A42FAD17047034B596A0A46986A5D
:103FF000596A9142FAD1704700000B40074A536A50
:104000009942FCD8994207D1044B02E05A6A914286
:1040100002D19A6A8242F9D3704700BF00000B4078
:1040200000EB400C4FEA8C0C0CF1804C0CF5803C02
:10403000F0B51646DCF80420051FB2F5803F38BF06
:104040004FF48032EDB238BFCCF80420012D2AD9CC
:104050004FF40067254C0CF54052176054F82020AF
:10406000B2B9DCF80020012D82EA461202F0E0022B
:104070000CF5805632602AD94FF4006144F82030A4
:104080004FF480330CF500521160CCF80430F0BDD1
:104090006769B7FBF2FE0EF1010E0EEB4E0EBEF19C
:1040A000030EFCD2DDE70129D2D103240CF54052E6
:1040B0001460DCF80820D207FBD5DCF800200B4C9C
:1040C00082EA461202F0E0020CF5805632600122CC
:1040D000DCF800504D4005F00305356002FA01F1AF
:1040E000DCF808200A42FBD0C6E700BF50230020BE
:1040F000014B53F8200070475023002070B4039DFB
:1041000004682D0345EA03451B4B002CB3FBF1F378
:10411000B2FBF3F61FDB194A194B904214BF4FF460
:1041200080424FF40042174C1A6003F580531A6026
:10413000A36832EA0303FBD1212200F54053043384
:10414000016086601A600268002AFCDA0822C560F5
:104150001A6070BC7047036803F03F038B42DAD1EA
:104160008368C3F30B03B342D5D1C36803F4EE23D2
:10417000AB42D0D1EDE700BF001BB7000080054087
:10418000002002400000024030B44FF080441C4B3D
:104190001C60E0B11B4CA3F54053DC611A4C40F0AD
:1041A000010044401C62596298624FF080454FF014
:1041B000E061134B1548164C1D60846019604AB9C4
:1041C00030BC4FF00042A3F580531A607047114B8A
:1041D000D861EAE74FF47A7303FB02F2B2F1807F11
:1041E0002ABF6FF07F4313461A464FF080410A4CB6
:1041F00008482360094B426030BC1960704700BF1B
:1042000000B00D40D3C007B02D3FF84F00A00140D3
:10421000F3FFFF0100800D40D032002000A00D40D0
:10422000012300EB4000800000F1804000F5841085
:1042300041600360704700BF002370B5DB8A04460D
:104240000D46002242E800F2520254BF1021042120
:1042500044F25220984786462B462246F446BDE853
:1042600070400A214FF48170604700BF0023DB8A51
:10427000002242E800F2520201D410211847042122
:10428000184700BF08B503460846191E02DB1AB1DD
:1042900040F03000FFF7D0FF40F02000FAE700BF09
:1042A000034AD2F82838002BFBD0BFF35F8F70474A
:1042B00000000E400021044B044ABFF35F8F43F817
:1042C000041B9342F9D170470C080E402C080E4095
:1042D00010B44FF48D704FF42A64064A064B074918
:1042E0001460D06019605368002BFCDA5DF8044B51
:1042F000704700BF0080044000A0044000B0FA00F6
:10430000704700BF08B50148FEF7B6FD58CE001053
:1043100038B5054C054DAC4204D254F8043B9847DF
:10432000AC42FAD338BD00BF08C9001048C900101C
:1043300010B40748074C084B084A094904601A6042
:104340008B6832EA0303FBD15DF8044B704700BF72
:10435000002002407F3BEFEF00300240F6FFF30306
:1043600000000240044BDB6CB3F5004F03D14FF467
:104370008022024BDA647047000011500020115077
:104380004FF0E022044BD2F8881D0B43C2F8883D61
:1043900010EE3004704700BF030330006FF060413F
:1043A000044B054A19609368DB4333F06043FAD14C
:1043B000704700BF003002400000024010B545F2D7
:1043C0005320FFF753FFBDE8104003460420184771
:1043D00010B545F25320FFF749FFBDE810400346F2
:1043E00001201847FEF742BE70B51449144C154D14
:1043F000641AA610442E324628BF44222846920052
:1044000008F03EF9B4F5867F13D80F4AC6F144018F
:1044100012D02B19480803EBC000C3E9002208336F
:104420008342FAD1CB0704D521F00103334445F888
:104430002320064B9D6070BD4323F8E70000001069
:1044400010010010000000201101001000ED00E03C
:10445000002370B52B4C82B0C4F88430FFF738FFCE
:104460000122294BDA63636C012BFCD10321264A1C
:10447000244B11639C6B012CFCD10226052521469F
:104480000523224A22480096FFF738FE21462B4694
:10449000204A21480095FFF731FE002204203146D2
:1044A0001E4BFFF7BDFD2146284600221C4BFFF79F
:1044B000B7FD0022082011461A4BFFF7B1FD00227C
:1044C00009201146174BFFF7ABFD002206201146CD
:1044D000134BFFF7A5FD0022114B07201146FFF7F4
:1044E0009FFD0420FFF704FE00240F4BA3FB0035C3
:1044F000AD0CE0B229460134FFF792FE062CF8D14C
:1045000002B070BD0000014000300140002F68592A
:1045100000000540008C864700800540001BB70066
:1045200080D1F008006CDC0283DE1B4386B003B44C
:1045300051FC0804CDE9020151FC0904CDE9040154
:1045400051EC0A04CDE9060103BCF047BDE8005078
:104550004EEC00C4BDE800504EEC01C4BDE8005074
:104560004EEC02C400BD000000B5FFF7DFFF02E023
:1045700010FE30F4F8D441EC100443EC112400EEAA
:10458000010410EE010480EE200451EC1004704789
:1045900000B5FFF7CBFF02E010FE30F4F8D441EC99
:1045A000100443EC112400EE010410EE210480EE0F
:1045B000200451EC3004704700B5FFF7B7FF02E06C
:1045C00010FE30F4F8D410B541EC100443EC112483
:1045D00051EC040453EC0524A0FB024C5FF0000EE8
:1045E000E0FB03CEE1FB02CE4CEC20440024E1FBD7
:1045F00003E444EC30E480EE200451EC5004BDE8C8
:104600001040704700B5FFF791FF02E010FE30F454
:10461000F8D441EC100443EC112451EC2104A0FB2C
:1046200001126FEA820252FB100052FB12F252FB9F
:104630001000A0EBD07C53EC04245CFB13F153EC92
:104640001524A1FB022001FB030053EC4424A2EB40
:10465000000050FB1CF24FEA111312EB017043EB08
:10466000E27140EA515020EA915020F0070053ECEB
:104670007524A0FB023C53EC752400FB03CC01FB2A
:1046800002CC53EC0424ACEB824C40EA5C70A0F109
:10469000010041EC400480EE200451EC70047047AE
:1046A00000B5FFF743FF02E010FE30F4F8D440EC11
:1046B000700400EE010410EE210480EE200451ECA1
:1046C0003004704700B5FFF731FF02E010FE30F410
:1046D000F8D440EC600400EE010410EE210480EEFA
:1046E000200451EC3004704700B5FFF71FFF02E0D3
:1046F00010FE30F4F8D441EC800400EE010410EE1A
:10470000010480EE400410EE1304704700B5FFF77B
:104710000DFF02E010FE30F4F8D441EC800400EE0E
:10472000010410EE010480EE400410EE33047047E3
:1047300000B5FFF7FBFE02E010FE30F4F8D441ECC8
:10474000100443EC112400EE010410EE3004C0F319
:104750000070704700B5FFF7E9FE02E010FE30F48C
:10476000F8D443EC102441EC110400EE010410EEE7
:1047700030F48CBF01200020704700BF00B5FFF768
:10478000D5FE02E010FE30F4F8D441EC100443EC06
:10479000112400EE010410EE30F42CBF01200020A3
:1047A000704700BF00B5FFF7C1FE02E010FE30F415
:1047B000F8D441EC100443EC112400EE010410EE97
:1047C00030F48CBF01200020704700BF9A4238BFF0
:1047D00088547047704700BF2DE9F04F83B0994669
:1047E000DDE90DAB0F9B884611469A07074616D1A7
:1047F000DA453AD20C460D46ABEB0A060E44224689
:104800004B46414620200134B847B442F7D12946EF
:10481000BAF1000F08D1204603B0BDE8F08F0C4676
:10482000BAF1000F10D00E4655460C9B2E449A4408
:104830000191721B4B46013D41461AF8010D344669
:10484000B847002DF5D101990F9B9B07E3D5651A59
:10485000AB45E0D922464B46414620200135B847BA
:104860005D4504F10104F5D3D5E7BAF1000FDAD1C3
:104870000C46D0E72DE9F04F0F9FDDF824E017F04C
:10488000020F0A9C9DF82C900E9DDDE90C8629D123
:10489000002D6FD1B44225D2202C07F0010B00F07F
:1048A000128104F1FF3C4FF0300AF44401E0202C67
:1048B0007AD00134A6420CF801AFF8D8BBF1000F52
:1048C00010D0AC420ED2202C74D004F1FF3C4FF03B
:1048D000300AF44401E0202C29D00134AC420CF819
:1048E00001AFF8D117F0100F3AD017F4806F28D12C
:1048F0001CBBB8F1100F00F0CA80B8F1020F00F035
:10490000D48030248EF800400124B9F1000F67D123
:104910007E0740F1AA802B260EF804600134CDE911
:104920000B57CDE909E4BDE8F04FFFF755BFFC0692
:1049300040F189807C0535D42024A6426AD0AC425F
:1049400068D0B8F1100F00F08780B8F1020F5AD08C
:10495000202CE4D0264601344FF0300C0EF806C06F
:10496000202CD2D1CDE90B57CDE909E4BDE8F04FB9
:10497000FFF732BF17F0010B3ED0B9F1000F47D15E
:1049800017F00C0F44D1B4429BD2202C89D1202D9A
:1049900010D8FC0657D57C0555D4202E00F0B980E0
:1049A000202D10D02024CCE7BBF1000F00F0A58013
:1049B000202DBCD9FC0646D57C0544D4202E00F021
:1049C000A880202D3FD12C461F26B8F1100F7FD094
:1049D000B8F1020FC0D14FF0620C0EF806C0B7E775
:1049E0002D260EF804600134CDE90B57CDE909E41A
:1049F000BDE8F04FFFF7F0BEB442BFF473AF202C18
:104A00007FF44FAFD6E7202C89D026460134E2E769
:104A1000013DB8E7661ED8D1B8F1100F64D0B8F1E7
:104A2000020F7FF46EAF62268EF800603026444697
:104A30008EF80160B9F1000F3FF46AAFD0E7B8F12A
:104A4000100F7FF46CAF2024CDE90B57CDE909E4BA
:104A5000BDE8F04FFFF7C0BEBE060ED4202CF2D04A
:104A600078260EF80460013472E73E077FF557AFF1
:104A700020260EF80460013451E7202CE3D04FF0DB
:104A8000580C0EEB040686F800C0013460E7BE0641
:104A900017D558248EF8004030248EF801400224A7
:104AA000B9F1000F3FF434AF9AE762248EF800406A
:104AB00030248EF801400224B9F1000F3FF428AFF2
:104AC0008EE77824F2E7BBF1000F7FF462AF71E765
:104AD00017F0200F0CBF4FF0780C4FF0580CA61EAB
:104AE0000EF806C0013C35E7BC06EAD558248EF81E
:104AF000004030248EF80140DDE717F0100F3FF43E
:104B00000EAF17F4806F9AD1202E7FF418AF1F26B6
:104B10005BE734461F2658E700B9704701F098BAA2
:104B200010B1D1E900311847704700BF0000000004
:104B30002DE9F04F9FB09DED287BDDE92AA558ECCB
:104B4000177B83461E460D91109243463A463846DF
:104B500041468DED087B2C9CFFF7EEFD002840F0D0
:104B6000D880384641464FF0FF32754BFFF71EFEA6
:104B7000002840F0CE80384641464FF0FF326FF4B7
:104B80008013FFF7EBFD002840F0C380DDE90878D3
:104B90000022384641460023FFF7E0FD002840F0A0
:104BA000C081CDE90A78DDE90A2390461F4614F456
:104BB000806308BF4FF0060A139304F4006258EABA
:104BC0000703119240F0C080002A00F0A2819FEDFF
:104BD0005A7B00278DED0E7B4FF00009BA45CCBF04
:104BE000AAEB070A4FF0000A4F46C8BF0AF1FF3A86
:104BF00044F480644D4594BF4FF00008A5EB0908CC
:104C000014F00203119304D0B9F1000F18BF4FF054
:104C100000083FB1DDE90A01DDE90E23FFF7F6FCEC
:104C2000CDE90A01DDE9080100220023FFF796FD26
:104C300030B1DDE90A01024601F10043CDE90A2362
:104C40009DED0A7BCDE902A8DDF834A024F40063D1
:104C500004938DED007B334651465846109A00F080
:104C600097F98046B9F1000F4FD014F0200F02469B
:104C700000F1010433460CBF652045205146D8475A
:104C800009F1FF3087EAE77C0DF1580900224B4615
:104C9000DFF8B080ACEBE77C4FEAD77E01E0202A5A
:104CA00010D0E246A8FB0C71C90801EB8107ACEB00
:104CB00047073037BAF1090F8C4602F1010203F8B9
:104CC000017BECD805230590069300200A230D9F55
:104CD000CDE90330CDE9012E334622463946584608
:104CE000CDF80090FFF7C6FD119B80466BB1109B7D
:104CF000C41AA54209D94246334639462020013418
:104D0000D847A54208F10108F5D840461FB0BDE8D4
:104D1000F08F9DED087B33465846109A0D998DED26
:104D2000287BCDE92B54CDF8A8A01FB0BDE8F04FEB
:104D300000F02EB9AFF3008000000000000000007A
:104D4000FFFFEF7FCDCCCCCCC7F30A50A0F2FF30F1
:104D5000FFF7AAFC8AA3D3E90023FFF731FC8AA35B
:104D6000D3E90023FFF704FCC7F31307CDE90E01D5
:104D700047F07F51404600227B4B41F44011FFF742
:104D80000BFC6BA3D3E90023FFF71AFC02460B468A
:104D9000DDE90E01FFF7ECFBFFF7AAFC0746FFF782
:104DA00083FC65A3D3E9002380468946FFF708FC0E
:104DB00000226E4BFFF7DCFBFFF79AFC03464946E7
:104DC000404612935EA3D3E90023FFF7F9FB804628
:104DD00012988946FFF768FC5BA3D3E90023FFF72D
:104DE000EFFB02460B4640464946FFF7D5FB02461D
:104DF0000B4680468946FFF7E3FB42464B46CDE92A
:104E00000E0140464946FFF7B3FB0022CDE91401ED
:104E1000DDE90E01564BFFF7F9FB0022554BFFF77A
:104E2000A7FB02460B46DDE90E01FFF7EFFB002270
:104E3000514BFFF79DFB02460B46DDE90E01FFF7E4
:104E4000E5FB42464B468046894600204FF08041B4
:104E5000FFF7A2FB02460B4640464946FFF788FB98
:104E600002460B46DDE91401FFF7D0FB0022434B5D
:104E7000FFF77EFB129B002203F2FF3C4FEA0C532C
:104E8000FFF79EFB80468946DDE90A0142464B4614
:104E9000CDE90E89FFF762FC68BB4346494607F13E
:104EA0006302C62A119A8CBF4FF005094FF004091E
:104EB000002A3FF49FAE0B433FF48EAEDDE90A01BA
:104EC00023A3D3E90023FFF75DFC48B1DDE90A0124
:104ED00021A3D3E90023FFF741FC00287FF47CAE37
:104EE000BAF1000F3FF486AE139B002B3FF482AE65
:104EF0000AF1FF3A7EE600221E4B40464946FFF784
:104F000085FB0A4601460346CDE90E12013F1146D4
:104F1000C5E79FED137B17464FF004098DED0E7B1F
:104F200068E608F100430A970B933CE6AFF3008074
:104F300061436F63A787D23F71A379094F930A40FA
:104F40001655B5BBB16B0240EF39FAFE422EE63F73
:104F50002D431CEBE2361A3F0000000080842E41F6
:104F600000000000000000000000F83F0000E03FEB
:104F700000002C4000002440000018400000F03FDA
:104F8000FB799F501344D33FB3C8608B288AC63F38
:104F90002DE9F04F97B0DDE92089CDE90401DDE985
:104FA000224BCDE90623404642464B464946DDF8B2
:104FB00090A0FFF7C1FB002840F0C581404649465C
:104FC0004FF0FF326FF48013FFF7C8FB002840F06A
:104FD0001D81404649464FF0FF32C14BFFF7E6FBCB
:104FE000002840F0E380B8A3D3E9002340464946B7
:104FF000FFF7DCFB002840F0CB80B5A3D3E900230A
:1050000040464946FFF7AAFB002840F0C1804046D1
:10501000494600220023FFF7A1FB002840F0E08072
:105020001AF480650D9000F0E980092C40F2968119
:105030000EAB1A460C9330210023A4F1090501336D
:10504000202B02F8011BA4EB030600F03A81AB42CF
:10505000F5D19FED9D7B8DED087B49464046FFF7DE
:1050600047FB0446FFF720FB02460B4640464946F5
:10507000FFF792FADDE90823FFF7A2FA02460B4692
:10508000CDE90A23FFF746FB0746FFF71FFB024661
:105090000B46DDE90A01FFF77FFA02460B46CDE930
:1050A0000A2300228F4BFFF781FB002800F0DB80F2
:1050B00001373846FFF70AFBDDE90823FFF762FBFB
:1050C00008B100270134002E40F0B1802046FFF7E0
:1050D000EBFA02460B4640464946FFF75DFA0022CE
:1050E000804B06460F46FFF739FB40B9304639463C
:1050F00000227C4BFFF75AFB002800F015810C9B27
:10510000691E7948194410E080FB0462C3EBA203D6
:1051100003EB8302A4EB420404F1300201351C4688
:1051200001F8012F002B00F0AB80202D4FEAE47333
:10513000EAD10AF00303012B1CD1BBF1000F19D0F7
:105140000D9B002B40F0F9801AF00C0F40F0F58019
:10515000AB4540F2D380202D0BD030220C996B1E32
:105160000B4401355D4503F8012F00F08D80202DA3
:10517000F7D12025DDE90623DDE904010C9CCDE90A
:1051800002BA01950094FFF727FB17B0BDE8F08F36
:10519000CDE92089DDE90623DDE90401CDE923BA63
:1051A000229417B0BDE8F04FFFF7C2BC4F4DCDF8C9
:1051B0008CA00AF0040ABAF1000F4D4C18BF2C461F
:1051C000DDE90623DDE9040120940CBF0324042457
:1051D000CDF888B0219417B0BDE8F04FFFF7FCBAC6
:1051E0004B46424600200021FFF7D6F901231AF46E
:1051F0008065804689460D937FF417AF9FED367B1F
:105200000EAB06268DED087B0C9326E70424DDE922
:105210000623DDE90401374DCDF88CA0CDF888B028
:105220002095219417B0BDE8F04FFFF7D5BA0C9B3D
:10523000681EDFF8C4C018440DE0ACFB0721C908A4
:1052400001EB8102A7EB42023032092F00F8012F57
:1052500027D90F461D46202D05F1010306F1FF3623
:10526000EBD120254BE70022DDE90A011D4BFFF7BA
:1052700075FA00287FF427AF002F5AD1013722E7B3
:105280000AF00303012B75D0202D3FF473AF0D9B63
:10529000BBB32D2205F158036B4403F8202C0135D4
:1052A00068E7202BDDD0AEB30C9A1E4415443022A3
:1052B00001E0B3422ED00133202B05F8012FF8D1A5
:1052C000CFE71D46C5E600BF0000000065CDCD411B
:1052D0000000000065CDCDC10000000080842E419B
:1052E000FFFFEF7F0000E03F67666666B0CE00100C
:1052F000B8CE0010C0CE0010CDCCCCCC202D3FF4C9
:1053000039AF1AF0040F0DD11AF0080F3FF432AF85
:105310002022BFE72E2103F158026A4402F8201C24
:105320005D1CECE62B22B5E7E3077FF5E8AE013420
:10533000E5E6FA077FF5C7AEA0E70BF1FF3BAB450B
:105340003FF609AFA0E70324DDE90623DDE9040108
:105350000A4DCDF88CA0CDF888B061E7084B264601
:1053600003EBC40393ED007B0EAB8DED087B0025B2
:105370000C9372E6BBF1000F86D0E1E6BCCE0010C4
:10538000C88F0C102DE9F04F9A469BB0249C964D87
:105390000B94964C0B1E18BF834625609AF80000AC
:1053A000934C0A9308BFA3460992002800F0BC82E0
:1053B0004FF000090AE04A46099B0A9909F10109E0
:1053C000D8479AF80000002800F0CE8025280AF17E
:1053D000010AF0D10023524612F8010BA0F120017E
:1053E00010290AD8DFE801F04009093C0909090938
:1053F00009090938093409093000A0F130010929E7
:1054000040F28C802A2800F0F58000210C912E2893
:1054100000F099800027A0F1680112292DD8DFE85B
:1054200011F057012C0051012C0045012C002C00DB
:105430002C002C002C002C002C0027002C002C0011
:105440002C002C002C002700924643F00103C2E7F9
:10545000924643F00203BEE7924643F00403BAE7E4
:10546000924643F01003B6E7924643F00803B2E7D2
:105470009AF8010043F4807301326728924600F2E3
:105480008280242840F2C680A0F12502422A00F240
:10549000C180DFE812F05F01BF00BF00BF00BF00A6
:1054A000BF00BF00BF00BF00BF00BF00BF00BF0004
:1054B000BF00BF00BF00BF00BF00BF00BF00BF00F4
:1054C000BF00BF00BF00BF00BF00BF00BF00BF00E4
:1054D000BF00BF00BF00260145012601BF00BF007D
:1054E000BF00BF00BF00BF00BF00BF00BF00BF00C4
:1054F000BF00BF00BF00BF00BF00BF00D301BF009F
:10550000BF00BF00BF00BF00BF00BF00BF00BF00A3
:10551000D3016701D301260145012601002100E0E6
:10552000013201EB810100EB410110789246A0F1BC
:105530003004092CA1F13001F2D92E280C9102F18E
:1055400001027FF467AF9AF801001146A0F130061E
:10555000092E43F4806340F231812A2800F03E8115
:1055600092460027013256E74C46099B994501D3E4
:1055700003F1FF394A460020099B0A99D847204683
:105580001BB0BDE8F08FA0F16902D2B20F2A41D85A
:10559000012649F2410196400E4040F001810A2A5D
:1055A0003FD0072A36D10B9C54F8042B002A00F078
:1055B000288143F021010DF1480E704603E0202EB2
:1055C00000F029811A4602F00F052B46092D94BFE1
:1055D000303337330F2A00F8013B06F101064FEA5A
:1055E0001213ECD817E100BF85530010CC32002015
:1055F000D54700100B9C9AF8010054F8045B9246C2
:10560000002DBDBF694243F002030C910C950B9431
:105610000132FCE64A46099B0A9909F10109D8477B
:10562000CFE60B9951F8048B98F800201046002F14
:1056300040F0E18072B16FF0010C0CF1010C4646B4
:10564000C44401E0664503D016F8014F002CF9D19F
:10565000A6EB080613F4806C02D0BE4228BF3E467B
:1056600013F0020400F08781002A00F02B81BCF1C6
:10567000000F00F041810B940D964A46DDE9095474
:105680000E464F4408E02B462146D84718F8010F34
:1056900009F1010910B14A464F45F4D131460B9C3E
:1056A0000D9E002C40F00E810B918AE69AF80100C5
:1056B0006C287FF4DFAE9AF8020043F440730AF1DD
:1056C0000302DAE69AF8010043F400730132D4E6EB
:1056D0009AF80100682800F0208143F0800301322D
:1056E000CBE6672800F0E780472800F000814528D6
:1056F00000F0FF800B9C04930C9B0734CDE90273F0
:1057000024F007031C46DDE90931F4E802674A4644
:105710005846CDE900670B94FFF70AFA814650E638
:1057200046280B9C08BF43F0200304930C9B0734CE
:10573000CDE9027324F007031C46DDE90931F4E8E2
:1057400002674A465846CDE900670B94FFF720FCF4
:10575000814636E64A462520099B0A9909F1010946
:10576000D8472EE60B9A9C0702F1040709F10106BF
:1057700040F1E6801078099B4A460A99D8470C9B6D
:10578000012B40F22C81DDE90954994432462B4625
:10579000214620200136D8474E45F7D10B9710E619
:1057A0006F2800F08B8040F26581782800F0088136
:1057B0004FF00A0823F01003C44647E0002707EB28
:1057C000870700EB4700A0F1300711F8010FA0F1A7
:1057D0003002092AF3D98A464A1C1CE60B9C9AF827
:1057E000020054F8047B0AF1020A0AF101020B9448
:1057F00027EAE7770FE6002A3FF42CAF07F1FF3CDA
:105800001BE723F0100113F4806241F021013FF403
:10581000D2AE0DF1480E08231020059300234A460E
:10582000CDE9023006915846DDE90931CDE900E6BF
:105830000497FFF71FF80B948146C2E5582879D0EA
:10584000622840F051824FF00208C44613F4806091
:105850006DD123F00C0313F4007240F0C2800B9959
:1058600004310D9113F4807140F02E825E060B9A84
:1058700040F1AA801278002A40F0DA8023F0100369
:10588000002800F0D58011460DF1480E06930C9BC0
:10589000CDF80CC0CDE90473019100234A46029370
:1058A0005846DDE90931CDF800E0FEF7E3FF0D9B36
:1058B00081460B9385E543F400631BE74FF008082E
:1058C000C446C3E70C9B4C46B3427FF6EDAE0F4691
:1058D0004B44A3EB0609DDE9096522463346294618
:1058E00020200134D8474C45F7D13946DCE643F453
:1058F000006343F02003FDE60F460B94DDE90954F5
:105900004A462B462146D84718F8010F09F10109EC
:105910000028F5D139460B9CC3E69AF8020043F003
:10592000C0030AF10302A8E5044681461DE623F000
:105930000D0390E74FF0100843F02003C44685E7BD
:105940000C9B012B45D9DDE909544E4609F1FF387E
:10595000984432462B46214620200136D8474645FA
:10596000F7D10C9B324699440B9B1878DDE909313D
:10597000D8470B9725E50C9BB34240F2EE81CDE969
:105980000D48DDE9095488464B449E1BCDF82CC0D8
:105990004A462B462146202009F10109D847B14546
:1059A000F6D14146DDF838800C9BDDF82CC00D9C0B
:1059B00098F800205E1C1046002A7FF458AE73E66B
:1059C0004FF01008C44641E71D064CBF128812680C
:1059D00051E713464A461878DDE90931D847B14600
:1059E000DCE60B9C073424F007042246656852F875
:1059F000084B0B9254EA050240F02C8123F010036F
:105A0000002800F0278100260DF1480E06930C9B1C
:105A10004A46CDE904730023CDE900E6CDF80CC079
:105A200002935846DDE90931FEF724FF8146C8E4B8
:105A300013F0200F14BF412061200DF1480E76466F
:105A4000A0F10A0803E020293FF420AF2246B2FB70
:105A5000FCF40CFB1425E8B2092D00F130058ABFD7
:105A60004044E8B2C0B2624506F8010B01F1010101
:105A7000E9D20BE723F0100269280D9240F06F8104
:105A800013F4806204D04FF4806223F011030D936D
:105A90000D9B13F4007640D10B9B03F104080D9B82
:105AA00013F4807040F09880590640F1C6800B9B3B
:105AB00019780C46CB0F002900F0B98022460DF171
:105AC000480E74461646DFF8A0C201E020280FD029
:105AD0003546ACFB0621C90801EB8102A6EB420268
