:020000041000EA
:10000000002008205D0100101B0100101D010010E0
:100010001101001011010010110100101101001058
:100020001901001019010010190100101F01001022
:10003000110100101901001021010010230100100E
:100040001101001011010010110100101101001028
:100050001101001011010010110100101101001018
:100060001101001011010010110100101101001008
:1000700011010010110100101101001011010010F8
:1000800011010010110100101101001011010010E8
:1000900011010010110100101101001011010010D8
:1000A00011010010110100101101001011010010C8
:1000B00011010010110100101101001011010010B8
:1000C00011010010110100101101001011010010A8
:1000D0001101001011010010110100101101001098
:1000E0001101001011010010110100101101001088
:1000F0001101001011010010110100101101001078
:100100001101001011010010110100101101001067
:10011000EFF30580103800BE00BE00BE00BE00BE7A
:1001200000BE00BEF2EB8871DC140210FC14021059
:10013000A001001090A31AE7D3DEFFFF42012110B7
:10014000FF0100000C280200793512AB4FF00000CF
:100150001E49086006C881F3088810474FF05040D8
:10016000006810B14FF00000F2E70DA40ECC00299A
:1001700002D000F012F8F9E71549164A002000E015
:1001800001C19142FCD11449884714498847144958
:10019000884700BEFDE701C901C29A42FBD3704700
:1001A000FC140210100100205815002044290210F0
:1001B0000000082000000820442902100010082038
:1001C00000100820000000007047000008ED00E06B
:1001D00058150020DC70002021920010410800100A
:1001E00019920010F8B500BF0348044B834202D0B7
:1001F000034B03B1184770475815002058150020CD
:1002000000000000064B0749C91A891048BF013198
:10021000491003D0044B0BB101481847704700BF89
:1002200058150020581500200000000010B5064C9D
:10023000237843B9FFF7D8FF044B13B10448AFF359
:1002400000800123237010BDF01700200000000083
:100250009CCF001008B5044B1BB104490448AFF310
:100260000080BDE80840CDE700000000F417002042
:100270009CCF001000232DE9F04F684DF3B0684685
:1002800067492B6005F046FE002840F0B980654CB8
:10029000654E664F68462CA905F08CFE002871D18A
:1002A0009DF8C630002B6DD09DF8B830DB06F1D438
:1002B0002E210DF1C6000CF093FC0028EAD0437803
:1002C000002BE7D0E25C02F00302012A08BF2033D2
:1002D000827808BFDBB28DF83030002A00F09480BD
:1002E000A35C03F00303012B08BF2032C37808BFCF
:1002F000D2B28DF83120002B00F08A80E25C02F04F
:100300000302012A04BF2033DBB28DF832300379B7
:10031000002B7BD0E25C02F00302012A04BF2033F1
:10032000DBB28DF833304379002B73D0E25C02F0FE
:100330000302012A4FF0050204BF2033DBB28DF81F
:10034000343000230CA98B540C9BB34205D0BB4224
:10035000A0D19DF83430002B9CD12A687F2A99DCEB
:10036000334880210DF1C60300EBC210314A08F07A
:10037000FDFE2B68684601332CA92B6005F01AFEA0
:1003800000288DD0684605F0FDFDD5F800B0BBF122
:10039000000F35DD4FF00009254E0CAF06EBCB18F2
:1003A00009F10109D9451FDA06F1800A54462146B0
:1003B00030460CF0E5FA00280EDD314638460CF0E8
:1003C000BDFB0546214630460CF0CAFCEA1B394607
:1003D000204601320CF01AFC8034A045E7D109F127
:1003E0000109D9455646DFDB16D1134B1A684A4539
:1003F00003DA012073B0BDE8F08F00221A60F8E73D
:10040000002073B0BDE8F08F01229AE7032298E73D
:10041000022296E7042294E78036C1E75C2C002094
:10042000A0CF0010D11302106A7067006A70656770
:10043000642C0020B4CF0010602C00202DE9F04F78
:1004400087B0119F002F7CD01C46109B002B7CD0C6
:10045000131A0133A1421FFA83FE6ED84FF0FF3505
:100460008B468046CDE904123A4ECDF80CE0FA886E
:10047000798802FB0BF9B9FBF1F91FFA89F94A45B2
:100480009CBF02F1FF321FFA82F9A9454DD078894D
:100490003989FA6848440A4402EB8023049AABEB9A
:1004A000020A039A02FB0AFA059A42453DD31197C4
:1004B000CDE9009B3746029445464FF0FF30934606
:1004C0001C46119E07E0384602F0D2FD0135ADB260
:1004D000AB4524D34846B388B6F8009003FB05FE2D
:1004E000BEFBF9F91FFA89F94B4503F1FF3E98BFAE
:1004F0001FFA8EF9A5EB08018145514407F1010C63
:10050000E4D0109B09EB0407BC4533F81110DAD195
:1005100001350846ADB202F0A7FDAB45DAD2DDE900
:10052000009B1196029C3E46119F0BF1010B1FFA96
:100530008BFB5C4501D34D4699E7012007B0BDE830
:10054000F08F384607B0BDE8F08F184607B0BDE819
:10055000F08F00BF19FCFFFF08B508F08DFF02F017
:100560004BFF0BF0B7FC02F029FCBDE8084000F09F
:100570004BBA00BF10B5002082B002F02DFE002063
:1005800002F038FE00214FF4F0734FF44872084631
:10059000CDE9001102F05CFE3F2444F34F00C3029A
:1005A00043EA4413184380B202F04EFE322006F0B4
:1005B0008DFE02F0D7FD013CEFD202F073FD012069
:1005C00002F06CFD0B21084600F04AFA024802B026
:1005D000BDE8104000F054BAC0CF001070B5224DF5
:1005E000224C234E00F088FFE0B903200D2100F0DB
:1005F00037FA284600F044FA02F03EFFC007FBD568
:1006000002F03AFFC107FBD40D21032000F028FAC5
:10061000204600F035FA642006F058FE00F06CFF2A
:100620000028E2D0FFF726FE0D2138B1032000F0AC
:1006300017FABDE870400F4800F022BA032000F01E
:100640000FFA304600F01CFA02F016FFC207FBD585
:1006500002F012FFC307FBD40D21032000F000FAC3
:10066000204600F00DFABDE7D4CF0010FCCF0010FB
:1006700048D0001024D000102DE9F04F00244FF492
:10068000F0764FF44875A3B070223E4906A80CF0EE
:10069000BDFA3D4BDFF8F8901B783C4F59F823002A
:1006A00002F0B6FD4FF4B41002F0C0FD33462A4606
:1006B00021462046CDE90364CDE90145009402F0CE
:1006C00027FE02F0EFFC4FF4B41002F0A1FD3B78DE
:1006D0004FF0600A59F8230002F0A8FD33462A467D
:1006E00021462046CDE90364CDE90044029502F09D
:1006F0000FFEA04602F0D6FC264605AD55F8044F85
:100700004FF47020C4F5487B02F082FD602322463E
:1007100031465846CDE903A8CDE90164CDF8008003
:1007200002F0F6FD02F0BEFC4FF4B41002F070FDD2
:100730005A46314660230020CDE903A8CDE9016B7C
:10074000009402F0E5FD02F0ADFC3B7859F823007F
:1007500002F042FD02F006FD3A780B49531C03F00B
:10076000010359F823003B700A7002F05FFD21ABD2
:100770009D42C3D16036B6F5F07FBED123B0BDE84F
:10078000F08F00BF24D30010D37000208814002005
:100790001CD300102DE9F04F4FF4702087B002F009
:1007A00037FD234A234B12784FF00A0B53F82200EF
:1007B00002F03CFD4FF0320A4FF00009DFF87C8078
:1007C0001D4F042654460A25302388FB0412E117E6
:1007D000C1EBA20101EB8100A4EB400000EB800023
:1007E00001EB4101000109015022CDE90001039311
:1007F000CDF81090029602F08BFD02F053FC6422BB
:1008000004F10D0387FB0301DC17C4EB6114013D08
:1008100002FB1434D8D1043602F0A4FC542ED1D1FA
:10082000BBF1010B01D0A246CBE707B0BDE8F08FCA
:10083000D37000201CD300101F85EB5167666666DD
:100840002DE9F04F8BB0FFF787FE0027FFF792FEF0
:10085000DFF8AC81FFF7C2FE654EDFF8A8A169E0C2
:10086000BDF81410BDF816B0B1F5487F00F28980CC
:10087000BBF5F07F00F29F805A46012A38BF012263
:100880000B46C2F5F07CCCF34F0C012B38BF012393
:10089000C3F5487000EBD070C0F34F00ADF822C034
:1008A0004FF0000CE64661F30F0C63F30F0E62F39A
:1008B0001F4E6BF31F4CADF820004FF47020CDF8A5
:1008C00018C0CDF81CE0CDF8249002F093FC002174
:1008D0004FF4F07308464FF48062CDE9007702F0E0
:1008E000B7FC02F0DFFB00212046CDE90077414A4A
:1008F00006AB00F09BFE00283BD0DDE9024B02F086
:10090000C9FB06F071FD3C4B001B61EB0B01834200
:1009100077EB01015ADA394B1B68002B5AD0012BB7
:1009200003D1FFF737FF354B1B68344A013303F01F
:100930000103136006F058FDD8F800300446002B80
:100940008B464CDD00254FF47029CDE9024B34680D
:100950000DF11602611C91FBF3F003FB10110AEB81
:10096000C4143160204605A900F010FE00287FF471
:1009700077AFD8F800300135AB42E8DCDDE9024B57
:10098000BFE74FF4487000FB0BF2C1EB011CB2EB68
:100990004C1F4FEA4C1311D2B2FBF1F292B2012A72
:1009A00038BF0122C2F5F07C0CEBDC7C0346CCF3B3
:1009B0004F0C002072E7C1EB01135B01B3FBFBF3AB
:1009C0004FF0000C4FF4F0729BB25EE7012006F08E
:1009D0007DFC96E7FFF750FE084B1B68A5E7FFF785
:1009E00049FC00288DD0D8F80030002BAADC88E71D
:1009F000602C00203D0400103F4B4C00AC20002038
:100A00005C2C0020642C00202DE9F041002749F6E1
:100A100040480F4D0F4E304602F018FBA5F5FA6422
:100A200034F8020F02F020FBAC42F9D107F57A77D7
:100A3000474506F5806604F5FA65ECD102F02AFB1D
:100A400000230549054A0B801380BDE8F08100BFF3
:100A500022DC001000603F00CA700020CC70002033
:100A6000272828BF2720172928BF1721024A034B10
:100A700010801980704700BFCA700020CC70002021
:100A80000FB42DE9F04FC9B0529A002A61D053AB90
:100A90004FF4807108A8079308F07EFB002858DD0A
:100AA000AC4802F0B5FB002002F0C0FB9DF82060CE
:100AB000002E4ED0A84DA94CDFF8A4A208AF2BE021
:100AC00003EB83039B009BB2203EB6B2632E3CD85F
:100AD0003220AAFB06C1090900FB116606EB860657
:100AE00001EB8101B000890080B20093002614233D
:100AF00002EB8202920092B2CDE903360192029398
:100B00001A4602F005FC238801339BB2272B25D817
:100B1000238017F8016FE6B10D2EFAD00A2E2A882D
:100B20004FD0092E238853D0272BC9D94FF0000866
:100B3000162AA4F8008000F2DB80203E0132B6B213
:100B400092B2632E43462A80C2D900214FF41B7013
:100B5000CBE749B0BDE8F04F04B070472B88268042
:100B6000162B2BD900264FF4E6784FF44879002055
:100B700002F04EFB002002F059FB43464A46142186
:100B80003046CDE90386CDE90169009602F0C0FB4D
:100B900002F088FA304602F02DFB14234A46414603
:100BA0003046CDE9006602F053FB02F07BFA69485B
:100BB00002F02EFB304602F039FBAAE701332B800E
:100BC000A7E70023162A2380CCD801322A80A0E789
:100BD00000264FF01408DFF87C91272B29881FD9B5
:100BE0001629268053D80022013189B2298001EBD1
:100BF0008101890089B21423CDE9011800210092F6
:100C000008461A46CDE9038602F082FB23880133A9
:100C10009BB2272B09D8990723803FF47AAF298804
:100C200003EB83039A0092B2E1E72B882680162B10
:100C3000C4D9002002F0ECFA002002F0F7FA4FF4D9
:100C4000E67B4FF4487214215B46CDE90162002037
:100C5000CDE903B6009602F05BFB02F023FA002018
:100C600002F0C8FA14234FF4487259460020CDE927
:100C7000006602F0EDFA02F015FA484602F0C8FAF2
:100C8000002002F0D3FA23889A07A6D141E700207A
:100C900002F0BEFA002002F0C9FA4FF4E67B4FF4EE
:100CA000487214215B46CDE901620020CDE903B60C
:100CB000009602F02DFB02F0F5F9002002F09AFAFE
:100CC0004FF44872594614230020CDE9006602F023
:100CD000BFFA02F0E7F9484602F09AFA002002F063
:100CE000A5FA2288298802EB8202920092B27EE75E
:100CF0004FF4E6794FF4487B404602F089FA4046CB
:100D000002F094FA14214B465A464046CDE9039826
:100D1000CDE9018BCDF8008002F0FAFA02F0C2F9B9
:100D2000404602F067FA14235A4649464046CDE948
:100D3000008802F08DFA02F0B5F9064802F068FA70
:100D4000404602F073FA23882A8803EB83039B0052
:100D50009BB2B9E600603F00CC700020CA70002052
:100D60001F85EB512DE9F04383B08046894606F09C
:100D70003BFB4FF0FF356FF00042274C274F041923
:100D800041F10006A54272EB06033CBF2C46164615
:100D9000FF2508E006F028FB201A66EB0101012878
:100DA00071F1000133DB012338460DF107020DF12B
:100DB00006018DF806508DF807500CF099F89DF853
:100DC0000730FF2BE6D0FE2B21D14B464246FF21B8
:100DD00012480CF0A5F80DF107020DF106010123F0
:100DE0000E488DF806508DF807500CF081F801235D
:100DF0000DF107020DF1060108488DF806508DF837
:100E000007500CF075F8012003B0BDE8F083002016
:100E100003B0BDE8F08300BF400D03000080084030
:100E2000F0B509234FF0000283B042EC4030FF24BC
:100E300001230DF107020DF1060125488DF806404A
:100E40008DF807400CF054F806F0CEFA4FF0FF355D
:100E50006FF000421F4C1E4F041941F10006A542DD
:100E600072EB06033CBF2C461646FF250FE001231C
:100E700038460DF107020DF106018DF806508DF888
:100E800007500CF035F89DF80730FF2B1DD006F009
:100E9000ABFA201A66EB0101012871F10001E6DAD4
:100EA00009234FF0010242EC4030FF2401230DF1F1
:100EB00007020DF1060106488DF806408DF807403F
:100EC0000CF016F8002003B0F0BD012003B0F0BD17
:100ED0000080084020A10700F0B5030605460E4635
:100EE00083B000F18A8009234FF0010242EC4030C8
:100EF000FF2401230DF107020DF106014C488DF886
:100F000006408DF807400BF0F3FFFFF789FF00283C
:100F10007DD0002D6FD0082D0CBF87270127FF241F
:100F200045F040038DF806300DF1070201230DF165
:100F300006013F488DF807400BF0DAFF320E01231F
:100F40008DF806200DF106010DF1070238488DF8E5
:100F500007400BF0CDFF320C01238DF806200DF178
:100F600006010DF1070232488DF807400BF0C0FF73
:100F7000320A01238DF806200DF106010DF107025A
:100F80002B488DF807400BF0B3FF01230DF107024A
:100F90000DF1060126488DF806608DF807400BF02C
:100FA000A7FF012322480DF107020DF106018DF87C
:100FB00006708DF807400BF09BFF0C2D2AD00A24F9
:100FC000FF251B4E01230DF1070230460DF10601EE
:100FD0008DF806508DF807500BF08AFF9DF9072019
:100FE0009DF80700002A04F1FF3302DA13F0FF0432
:100FF000E8D103B0F0BD952791E700213720FFF736
:101000006BFFC0B20128F4D805F07F056BE72046DE
:1010100003B0F0BD01230DF107020DF106010448F4
:101020008DF806408DF807400BF062FFC7E700BF60
:101030000080084008B101207047F0B5A44C064676
:10104000237883B0CBB9A349A3480AF06FFE0121EE
:10105000082005F05FF801210A2005F05BF8012166
:101060000B2005F057F8092005F0E2F801230922CA
:1010700043EC442043EC40202370964996480AF004
:10108000CFFE09234FF0010242EC40301424FF252B
:10109000914F012338460DF107020DF106018DF83D
:1010A00006508DF807500BF023FF013CF1D11425B9
:1010B00004E00A2006F00AF9013D56D00021084656
:1010C000FFF70AFF01280446F3D14FF4D571082039
:1010D000FFF702FF012805464ED00021A920FFF7A7
:1010E000FBFE0128DABFA9240227274606F07CF977
:1010F0004FF0FF3C6FF00042784D451941F100067A
:10110000AC4572EB060307D26546164604E00021A3
:101110002046FFF7E1FE40B106F066F9281A66EBBB
:101120000101012871F10001F1DA022F00F0C680FF
:1011300001266B4A09230124167044EC4030FF2538
:10114000234665480DF107020DF106018DF80650A2
:101150008DF807500BF0CCFE624D002E40F0A580BC
:101160002C702878C0B203B0F0BD01225D4B1A701C
:101170001878C0B203B0F0BDFF2403460DF107029A
:101180000DF1060154488DF806408DF807400BF02C
:10119000AFFE2B460DF107020DF106014E488DF80A
:1011A00006408DF807400BF0A3FE2B460DF1070219
:1011B0000DF1060148488DF806408DF807400BF008
:1011C00097FE2B469DF8075043480DF107020DF19D
:1011D00006018DF806408DF807400BF089FE012DC1
:1011E0009DF80730A5D1AA2BA3D106F0FDF84FF04A
:1011F000FF326FF00043394C041941F10005A2425F
:1012000073EB050108D214461D4605E04FF08041FE
:10121000A920FFF761FE40B106F0E6F8201A65EB61
:101220000103012873F10003F0DA00213A20FFF7EF
:1012300053FE00287FF47DAFFF2401230DF1070248
:101240000DF1060124488DF806408DF807400BF09B
:101250004FFE01230DF107020DF106011E489DF816
:1012600007508DF806408DF807400BF041FE012332
:101270000DF107020DF1060117488DF806408DF8B3
:1012800007400BF035FE012313480DF107020DF165
:1012900006018DF806408DF807400BF029FE15F089
:1012A000400F0CBF04260C2643E72B780E4903F0B1
:1012B000FE0309482B700AF0B3FD52E74FF40071AA
:1012C0001020FFF709FEB0FA80F67609760030E7C5
:1012D000D5700020A08601000080084040420F0029
:1012E000D27000208914002020BCBE0018B9034B26
:1012F0001878C0B270470120704700BF89140020E1
:1013000070B582B000283BD11C46002B38D0274B4B
:101310001E7816F0010637D1254B0D461B781B07AA
:1013200058BF5202012C114632D01220FFF7D4FDD3
:10133000B8B1012609234FF0010242EC4030FF24EE
:1013400001230DF107020DF106011A488DF8064040
:101350008DF807400BF0CCFD304602B070BD013C6B
:1013600009D028464FF40071FFF7FCFC05F5007525
:101370000028F4D1012600210C20FFF7ADFDD9E7AC
:101380000426304602B070BD0326304602B070BD60
:101390001120FFF7A1FD0028CBD14FF400712846A2
:1013A000FFF7E0FCB0FA80F67609C3E78914002065
:1013B000D2700020008008400220704730B587B00E
:1013C00058B94B4B187810F001043AD1154603294F
:1013D00003D8DFE801F00B1330060424204607B0E1
:1013E00030BD01232046136007B030BDFFF718FD64
:1013F000002860D10124204607B030BD002109201B
:10140000FFF76AFD20B9102102A8FFF7ABFCE0B995
:1014100009234FF0010242EC4030FF2401230DF17B
:1014200007020DF1060133488DF806408DF807409C
:101430000BF05EFDDEE74FF400732046138007B02B
:1014400030BD0324204607B030BD9DF808009DF84C
:101450000F30800901289DF810209DF811103CD014
:10146000920942EA83009DF80E309DF80D209B0200
:1014700003F4406303439DF8120002F00F02490099
:1014800002EBD01201F00601073A0A449340092208
:101490004FF001012B6041EC4020FF2501230DF1AD
:1014A00007020DF1060113488DF806508DF807501C
:1014B0000BF01EFD92E709234FF0010242EC403091
:1014C000FF25012302AA0DF107010A488DF80750F4
:1014D0008DF808500BF00CFD80E7BDF810201B04C0
:1014E00052BA03F47C1392B2134301339B02CEE74A
:1014F000891400200080084008B50020FFF79AFDFD
:10150000C30701D5002008BD01220549054804F0A4
:10151000C7F9B0FA80F0044B4009187008BD00BF4D
:1015200014D10010242A0020D470002010B5C36FFD
:1015300082B0D3F828425CB11046D3F82C22C3887D
:10154000CDE90012428881880088A04702B010BD12
:10155000012002B010BD00BF002310B582B0C06FE3
:10156000019349B101AB04F0D7FA10B1002002B0E9
:1015700010BD019802B010BD41691446114404F039
:1015800009FC0028F2D1204602B010BD002844D04A
:1015900070B50446ADF5835D82B00E461546002158
:1015A0004FF40C7223A80BF031F92146012223A835
:1015B00004F0B6F90146E8B9842202A80BF026F936
:1015C00023AA009240F6AC53154902A8AFAA00F036
:1015D000FBF8C8B916B1BDF82430338015B1BDF899
:1015E00026302B8023A804F06DFB01200DF5835DD0
:1015F00002B070BD024621460A4808F003F80020F8
:101600000DF5835D02B070BD02462146064807F025
:10161000F9FF23A804F056FBF1E70020704700BF54
:101620005915001070D0001090D00010002862D022
:10163000F0B50329ADF5835D0D4683B04AD8044665
:101640001E46174600214FF40C7223A80BF0DEF85B
:101650002146012223A8CDE9AD7604F061F90146C7
:10166000002832D1842202A80BF0D0F823AA0092DD
:1016700040F6AC53214902A8AFAA00F0A5F858BB28
:101680000DF584531B682BB10DF58452BDF8243041
:10169000126813800DF5845304331B6833B10DF5C4
:1016A00084520432BDF82630126813802A46144949
:1016B00002A800F0D1FB054623A804F003FBA5B95E
:1016C00001200DF5835D03B0F0BD024621460D48B3
:1016D00007F098FF0020F4E7024621460A4807F089
:1016E00091FF23A804F0EEFAF4E72A4621460748C2
:1016F00007F088FFEEE70020704700BF5915001083
:101700002D15001070D0001090D00010B4D0001033
:101710002DE9F04707464FF0FF33047B3D6E04F0A0
:101720001F04A3408C42884600687E6825EA0305B2
:1017300047D24FF0000A97F86490B9F1000F1DD01E
:10174000FF230834A04543EA052508D9B9F1000F65
:10175000F1D008342D02444545F0FF05F9D3E3B23A
:10176000A4EB0804A3EB080304F01F043B73C7E9D0
:1017700000063D6625FA04F0BDE8F08738B9BE687A
:101780004FF4007231463846BB6F9847A8B116F83F
:10179000013B0138BAF1000F06D063B187F864301D
:1017A0004FF0000AFF23CCE7FF2BCAD1A045D6D9C2
:1017B0004FF0010ABFE79A46C2E76FF00100BDE8AB
:1017C000F0872346CCE700BF2DE9F04F1E46804648
:1017D0000F4614468DB0169D90F88090842200210B
:1017E0000BF014F8B6F5007FC8E91C46C8F87C5029
:1017F000C8F8787088F88090C0F00D82A6F5007661
:1018000004F50073C8E91C36C8F80840002C00F045
:10181000028200264FF6D879354608E02378D8F8BA
:10182000787043EA0525ADB24D453B4621D00122F3
:1018300021464046B847012806F10106EED00220B5
:101840000DB0BDE8F08FDB2A5FD0DD2A40F0E781E4
:10185000BBF5007FF4D85A4621464046D8F8783088
:1018600098475845EBD123885BBAA8F81A30D8F8C6
:10187000783004222146404698470428DFD1628808
:10188000238852BA92B25BBA022A9BB240F2878096
:10189000190AFF2940F08380911CA2F1020BDAB2F1
:1018A000DA2A0E4400F0C581CDDCA2F1C00398B263
:1018B000192800F2B4810123D24A83401A4012BB96
:1018C00004286ED0DA0740F1AA81BBF5007F00F250
:1018D000BA825A4621464046D8F87830984758454B
:1018E000ADD1B4F803305BBAA8F81C30B4F80130BD
:1018F0005BBAA8F81E30637903F0FD02012A88F86C
:10190000133000F03B8208209AE7BBF5007F97D8A0
:101910005A4621464046D8F87830984758458ED1E7
:10192000BBF1400F3BD9DFF8E4E204F1020919F8FA
:10193000023C48460F2B32D8D8F87420FF2A40F2D8
:101940006A81D8F87070A2F58072C8F8742007F523
:101950008072C8F87020002F00F05D8103F003034F
:10196000143348F8237019F8013CA74A5B033B6025
:1019700002F13F0C12F8011F10F8013B3EF8115024
:10198000624505FB03F347F82130F3D1BBF1410B6E
:101990003FF46DAFBBF1400F09F14109C7D80620F4
:1019A0004EE7BBF5007F3FF64BAF5A462146404617
:1019B000D8F87830984758457FF441AFBBF1100F05
:1019C000EDD9A446B2465A4625469CF8003013F09D
:1019D000EE07E4D1D8F874100F2940F21C81D8F832
:1019E00070001039C8F8741000F11001C8F87010B8
:1019F000002800F01081190903F00F0301EB4303E5
:101A000008EB830420629CF80130029103709CF87B
:101A10000210417019449CF80330837019449CF8FB
:101A20000430C37019449CF80530037119449CF8C4
:101A30000630437119449CF80730837119449CF8AF
:101A40000830C37119449CF80930037219449CF89A
:101A50000A30437219449CF80B30837219449CF885
:101A60000C30C37219449CF80D30037319449CF870
:101A70000E30437319449CF80F3083730B449CF869
:101A800010100B44C1735900D8F87460033121F071
:101A90000301B14200F2BF80D8F87090761A494431
:101AA000C8F87460C8F87010B9F1000F00F0B38086
:101AB00000F1FF3E00F10F0B3846CDE9034ACDE9B6
:101AC0000526CDE9071CCDE90938C4F830900B95FF
:101AD0001EF8014F04F1FF3C002C4FD0BCF1020F67
:101AE00040F2478100231A4600F1020A00F1010882
:101AF000C51C09EB4701A60860F30F036AF30F0248
:101B000001EBC60668F31F4365F31F42CDF804E0FE
:101B10000025AE460B6003F1040AC3F30F43043300
:101B20006AF30F0563F31F454A602B46151DC2F388
:101B30000F420432083165F30F0E62F31F4E8E42DE
:101B40007246E5D1A307DDF804E013D024F00302C8
:101B50001044BB1880B2ACEB0202411C29F8130000
:101B600089B25B0032B102304B44012A598080B205
:101B700000D098801CFA88F0274480B24000DE45EF
:101B800080B2A5D1DDE90526A2F11107DDE909380A
:101B90009F420B9DDDE9034ADDE9071CFFF4FFAE20
:101BA000DA1C22F00302964235D3B61A0A44C8F86A
:101BB0007020C8F874600CF111022164002B00F051
:101BC00040810298002800F00981581E052805D997
:101BD0000CF11200081A022800F20F81481E11466B
:101BE00003F11106664411F8014BB14200F8014FB0
:101BF000F9D102EB030CFA1A00F02B81102A3FF600
:101C0000E4AECCE6EEEE000214D4001094D3001043
:101C10000023C8F8683003200DB0BDE8F08F5A46A5
:101C200000214046D8F87830984758453FF41FAE19
:101C300005E6BBF5007F3FF603AE5A462146404617
:101C4000D8F87830984758457FF4F9ADB8F81C308B
:101C5000002B3FF4A4AEB8F81E30002B3FF49FAE2B
:101C600098F81320237893427FF44DAE002B41D097
:101C7000A27812B1112A7FF446AED8F82020002AAB
:101C80003FF48DAED8F82420002A3FF488AE98F8AF
:101C90001020143258F82220002A3FF480AE012B85
:101CA00028D0227912B1112A7FF42DAED8F828203D
:101CB000002A3FF474AED8F82C20002A3FF46FAE0F
:101CC00098F81120143258F82220002A3FF467AE09
:101CD000022B0FD0A27912B1112A7FF414AE98F81A
:101CE0001220143258F82220002A3FF458AE032B59
:101CF0007FF409AE98F80F3098F80E2013FB02F32A
:101D0000002B3FF44CAEDB0103F14001B1F5807FC5
:101D100038BF4FF48071D8F8742091423FF678AF05
:101D2000D8F87000521A0144C8F87420C8F870102E
:101D3000C8F8680000283FF46EAF03F580739A423C
:101D4000C0F08380D21AC8F874200B44C6F308028E
:101D5000C8E91B13144442B121464046D8F87830F4
:101D6000C2F500729847C8F800000020C8F8044087
:101D700066E562463B4600F10108EEE6E279112A8B
:101D800004D0A2F1210101293FF6BDAD110902F0F5
:101D90000F0288F80E1088F80F20227A032A88F89C
:101DA00010203FF6B0AD012B3FF461ADA27A112AAD
:101DB0007FF4A9ADE27A032A88F811203FF6A3AD9B
:101DC000032B7FF454AD637B112B7FF49CADA37B7D
:101DD000032B88F812307FF64AAD94E503F1110029
:101DE0000139844404E0944501F8010F3FF403AF46
:101DF00012F8010B0B28F6D9D1E510460C464FEA34
:101E000093094FEA890C02EB890E50F8046B704578
:101E100044F8046BF9D163453FF4EBAE047801F864
:101E200029400CF10104A3427FF6E3AE46780CF1A1
:101E3000020C63450E557FF6DCAE807801F80C008D
:101E4000D7E69446D7E60420FAE40023C8F86C30BD
:101E5000E1E656462C460AE52DE9F04F032A97B0F5
:101E60000F9100F24D87134600224373C37B817BA1
:101E7000DD00C38BC90083460D9142610283002BB4
:101E800000F0DA842C46818B0C920992079200298B
:101E900000F0CC84002310940893CDF808B0029B86
:101EA0005A8B32B109994B1C8A429BB200F0D785FC
:101EB0000993029CA27BE37BA16E12FB03F3E26E0B
:101EC0000A930692C3F10102013B039105920B9321
:101ED0000B9B059A0A991344994200F2FC82002A4E
:101EE00000F0EC84E37C032B40F005854FF0010B00
:101EF00001924FF0FF32D4E90001237B266E03F0FC
:101F00001F0A02FA0AF213F0100826EA020640F04D
:101F1000E88594F86470002F00F08D82FF220AF1AA
:101F200008050F2D42EA062607D8002F00F0AB82E5
:101F3000360246F0FF060AF11005C4E9000104EB81
:101F4000CB032666196A1A6B0F461B6C4FEACB0B44
:101F500001F1100805EB010902E0474500F0B182EC
:101F6000BE4617F8010B0028F7D0A9EB070A26FA9E
:101F70000AFA03EB000C02E001336345EDD032F8BE
:101F8000020B8245F8D1C1F101018E44A5EB0E058B
:101F900025731F78019B04EB4306B6F914508FB1EB
:101FA00039462046FFF7B4FB031EC0F2AC8601227F
:101FB000013FBA40134203D15200C2F1010213445F
:101FC0001D44B582019B039823441B7CFC221433DF
:101FD00054F82330002104931B684FF0010905FBDE
:101FE00003F31B1240F8043B0AF010FCD4E9000A8A
:101FF0004FF0FF33277B256E07F01F0803FA08F325
:1020000017F0100725EA030540F0638294F8646036
:10201000002E00F0F381FF2208F108030F2B42EAA3
:10202000052507D8002E00F004822D0245F0FF059B
:1020300008F1100304EB0B02576AC4E9000A566B5F
:10204000516C25663A4607F1100803EB070ACDF8F4
:10205000049002E0424500F03482964612F8010BEB
:102060000028F7D0AAEB020C25FA0CFC084402E089
:1020700001318142EED036F8029BCC45F8D1C7F150
:102080000107BE44A3EB0E0323730D78DDF8049023
:10209000002D00F0178409EB15163F2E00F2118277
:1020A00015F00F0540F0F1813F2E06F101099DD199
:1020B000637B032B00F00A84039A019413462032B9
:1020C0004FF4B55841F6905941F2511B14461A6A23
:1020D000196ED3F8E050D3F8A060501B1544721A63
:1020E0000E4442F6CF1101FB02FE024409FB02F14D
:1020F0000BFB00F2D3F8C070D3F840C04FEA2E308B
:10210000ACEB070A08FB0AFA1213D3F800E0BC4450
:10211000C0EB2130AF1BC2EB2132D3F8801008FB9B
:1021200007F735440EEB0106CCEB2A3AAEEB010182
:1021300006EB0C0E0433401BA6EB0C0601EB0A0C5D
:10214000A1EB0A010EEB050AAEEB0505C0EB273744
:10215000C3F8DC500CEB0005ACEB0000D21BC3F85D
:10216000BC00C819C91BC3F89C10A34206EB0201AE
:10217000A6EB020643F804ACDD61D863D965DE67DF
:10218000A5D14FF4B55941F6905B069A019C02F136
:10219000100090320494019242F6CF1453F81C2C94
:1021A00053F8146C53F8047C53F80C5CD11B17449F
:1021B000AA1B354404FB02F641F251140A4404FB05
:1021C00001F10BFB02F253F808CC53F818EC36136C
:1021D000AEEB0C0A0913C6EB2236C1EB223109FB28
:1021E0000AFA53F8202C53F8108CE64402F500420A
:1021F000A7EB050C09FB0CFC2F4402EB0805CEEB0A
:102200002A3AA2EB080205EB0E08F61BA5EB0E0519
:1022100002EB0A0EA2EB0A0208EB070AA8EB07077B
:102220003F12C6EB2C3C20F8027C0EEB0607AEEB0F
:102230000606361220F8046C02EB0C06A2EB0C0228
:10224000A1EB0C01121220F8062C36126A1A20F8A3
:102250000C6C12126E1820F8082C4FEA2A2A019AE8
:102260003F12311220F810AC20F80E7C20F80A1C26
:102270001030904203F120038ED1069A049C8032E4
:10228000059B0133032BCDE905327FF421AE0823F2
:10229000029A079ED17B907B0C4601910FFA81FC3C
:1022A000918B089A10FB03FA13FB00238B4294BF17
:1022B00053468B1A029AE400D58BA219AA4288BF12
:1022C000AD1B029E98BF2546727BD34000F0A282D0
:1022D000D540049500F09E820899032A21FA02F164
:1022E00089B2ADF8501001F1FF311944ADF8521028
:1022F000079921FA02F189B2ADF8541001F1FF31CA
:102300002944ADF85610B16E00F02383019D002DD5
:1023100000F00A82022800F0E783C2011646CDE9E8
:102320000A430E9240F29B58002240F2DB2E4FF4FB
:10233000B07B634600EB4005ED0003950335CDE926
:10234000055A029CE56E019C05EB0219022C05BFA3
:102350004FEA520C0CF1200C05EB060C05EB0C1CA3
:10236000002800F0C880059CCDE91102CD1C01EBCE
:10237000040A2DE0FF2800F33681C0B205F8030CF3
:102380000BFB04F00EFB07000028B8BF00F2FF3083
:10239000B2EBA02000F12381FF2800F32281C0B21C
:1023A00005F8020C40F2167000FB04F4002CB8BFD4
:1023B00004F2FF3412EBA42200F19280FF2A00F312
:1023C0001481D2B205F8012C0335AA4500F08F80A4
:1023D000BCF9807039F9022B803F08FB07F0002818
:1023E000BCF90040B8BF00F2FF3012EBA0200CF1A6
:1023F000020CA4F18004BDD50020BFE748B9D4F891
:1024000008A04FF4007251462046A36F9847002859
:102410005BD01AF8013B01381A462FB10BB184F892
:1024200064300027FF22F7E5FF2B7FF4F5AD43462C
:1024300001279846EAE5B8B9A5684FF40072294625
:102440002046A36F984700283FD0294611F8013B4A
:1024500001381A46B8F1000F0FD00BB184F8643080
:102460004FF00008FF225AE50D46294611F8013BBE
:1024700001381A46B8F1000FEFD1FF2B7FF44FADB2
:1024800055464FF00108AA4643E529462046FFF786
:102490003FF9021EC0F256820123691E8B401A4288
:1024A00003D15B00C3F101031A44964B995D049B71
:1024B00053F8213002FB03F3039A1B1242F8213038
:1024C000F2E5062017B0BDE8F08F022017B0BDE896
:1024D000F08F4346AEE54FF0000BCDF804B008E5B1
:1024E0000022033505F8042CAA457FF471AFDDE91D
:1024F0001102039C21440132082A06F110067FF4E0
:1025000020AF0A9C9C46082CDDF818A00B9B00F01D
:1025100081804FEACC050A9540F29B59802540F214
:10252000DB284FF4B07E40F2167B039ECDE911A468
:1025300003360B961393029BDC6E019B022B00F07B
:10254000E4810E9B5F19274404EB050C002858D04A
:102550000B9BCDE90502CC1C01EB030A29E0FF2A05
:1025600000F3CA80D2B204F8032C0EFB00F208FB81
:102570000622002AB8BF02F2FF32B3EBA22200F11A
:10258000B980FF2A00F3BA80D2B20BFB00F000281A
:10259000B8BF00F2FF3013EBA02304F8022C26D4BE
:1025A000FF2B00F3AD80DBB204F8013C0334A245FD
:1025B00023D0B7F980603CF9023B803E09FB06F26C
:1025C000002AB7F90000B8BF02F2FF3213EBA222D3
:1025D00007F10207A0F18000C1D50022C3E7002067
:1025E000DEE6FF20DCE6FF20C8E6FF22EAE6002365
:1025F000033404F8043CA245DBD1DDE90502039B6A
:1026000019440A9B0132934205F1100593D1DDE98B
:1026100011A4139B029F7A7BB96E002A00F084807C
:102620004FF0010C0AFA02F602FA0CFBCDE905B3F1
:102630004FF0030E33464FF000090EFA02FE0CFA7B
:1026400002FC0D4602464E46BB4618460AEB4A08B7
:102650000EF1030E002A5FD00027CB1CCDE90A241F
:1026600029461A466346119007EB090000EB40002B
:10267000D4460E960144002B38D000242646254629
:102680002046CDF804C00397CF1C01EB0E0C17F8C1
:1026900003AC0337554417F805AC564417F804AC9F
:1026A00067455444F3D1013083424144ECD105994C
:1026B000DDF804C0CD40CE40CC40039FEDB2F6B271
:1026C000E4B21F44BC45114602F8035C02F8026CF8
:1026D00002F8014C02F1030216D9DBF8681007EB8F
:1026E000090000EB40000144002BC6D11C461E46E9
:1026F0001D46E6E7002248E7FF2234E7FF2244E7D1
:10270000FF2351E714D40010E2469C460A9A0B9C22
:102710000E9E1198DBF868506644B442814499D803
:102720002946029A069B527B2AFA02FA534544D262
:1027300003EB430B03F1FF3CE1460D464FF0000E67
:102740001F46DC469A0802EB42029200059223F0F3
:102750000302501C0AEB4A0802EB420A02320BF158
:102760000304039203F003020C4401900692B9F1B2
:10277000020F05D905F10B035B1A162B2A465DD80B
:10278000EB1CCA1C13F8030C033302F8030C13F8F8
:10279000050C033202F8050C13F8040C9C4202F8F5
:1027A000040CEFD1049B0EF1010E734561444544C6
:1027B0004444DCD13B46029A916E049A02FB03F337
:1027C000029A013392F8802003EB43030B44002A62
:1027D00000F0A1800C46B54DC81C10F8026C10F832
:1027E000032CF60006F4FC6605EA0222324310F8D8
:1027F000016C033042EAD60252BA984224F8022B06
:10280000EBD102980F9B14AA9847002800F04C8146
:10281000029B998B089B0D9A13448B420893FFF4FB
:102820003EABDDF808B0109CBBF81E30079A22447E
:10283000934207923FF62BAB002043E6059BCDE980
:102840000A7505EB030B0B462E1D05F10800CDF8AC
:1028500038E052F80CEB56F80C7B50F80C5B5A45FC
:10286000C3F800E05F609D6003F10C03F1D1DDE986
:102870000A75069BDDF838E0002B93D015F80A3076
:1028800005EB0A0201F80A30507801EB0A03587090
:10289000907898700198874284D9D078D870107950
:1028A000187150795871039887427FF67BAF907901
:1028B0009871D079D871127A1A7273E7934601929F
:1028C000FFF717BBB9F1010F7FF4F2AB0021039BB7
:1028D0001A68069B002AB8BFFF321212803212B269
:1028E00062F30F0162F31F4103F1800243F8041BFE
:1028F0009342FBD1C4E44FF08011069B03F18002A8
:1029000043F8041B9342FBD1BAE45708203704EB89
:102910000717803418E60D46644EC81C10F8032CC7
:1029200010F8024C10F8017C06EA0222E40004F4DC
:10293000FC6442EAD70203302243834225F8022B8B
:10294000ECD15EE75342DBB2002B3FF4A0AC18465B
:10295000B8E504FB0AF5F76E07EB450637F91550A5
:10296000B6F98060A5F18008019D803E002D3FF4FE
:10297000DBAE4FF4B07240F29B5940F2DB2C08FB07
:1029800002F209FB06F90CFB0622B9F1000FB8BFF1
:1029900009F2FF39002AB8BF02F2FF329212C2F1E7
:1029A000000E40F21672002602FB08F5002DB8BF9B
:1029B00005F2FF354FEAA9294FEAA528002840D0A3
:1029C0004FF0000CCD1C80371FE0FF2935DCC9B269
:1029D0001EEB020B05F8031C294622D4BBF1FF0FA6
:1029E00028DC5FFA8BFB18EB020205F802BC1FD44F
:1029F000FF2A24DCD2B20CF1080CE24505F8012CC8
:102A000007F1800705F103051BD937F9802C19EB75
:102A10000201DAD500211EEB020B05F8031C294642
:102A2000DCD54FF0000B18EB020205F802BCDFD535
:102A30000022E0E74FF0FF0BD5E7FF21C8E7FF22B8
:102A4000D9E70836B44206D9029A082ED76EB5D116
:102A500007F58077B2E702994A7B896E64E6029AAD
:102A600092F864405668106814B3002344F47F441D
:102A700082F864304FF6D07224F027039BB2934261
:102A80007FF41FAD0C9A84EA020313F007037FF46E
:102A900018AD013292B20C92029A137353611383F0
:102AA00001230993FFF705BA01200BE500F8FFFFAA
:102AB0001746022548B9BE684FF4007231463846C1
:102AC000BB6F984700283FF400AD16F8013B012D7D
:102AD00043EA042400F1FF30A4B200F00D81012587
:102AE000E8E75546FFF729BA4FF480724FF0000926
:102AF00040F29B5B0390CDF814A002984FF0000EBB
:102B0000C66E0198CF1C022803BF4FEA590808F18E
:102B1000200806EB081806EB0208069406EB0916D7
:102B20000A932FE0FF2C4EDCE4B207F8034C4FF47D
:102B3000B07440F2DB2304FB05F403FB0A44002CD1
:102B4000B8BF04F2FF34B0EBA4243AD4FF2C3EDC2F
:102B5000E4B207F8024C40F2167404FB05F5002DB0
:102B6000B8BF05F2FF3510EBA52028D4FF282CDCD8
:102B7000C0B20EF1010EBEF1100F07F8010C07F103
:102B8000030726D0B8F980A0BEF1080FAAF1800A89
:102B90000BFB0AF408BF70360EF00100B8F90050C4
:102BA000002C08EB400836F9020BB8BF04F2FF34E2
:102BB00010EBA424A5F18005B4D50024B5E70020CE
:102BC000D7E70024C5E7FF24AFE7FF20D1E7FF24C4
:102BD000BFE709F10109B9F1080F069C0A9B01F151
:102BE000300102F1100288D1082C0398DDF814A0FE
:102BF0003FF410AD802240F29B5B4FEACC05029877
:102C0000C76E019802286FD002F5807ABA444FF05F
:102C1000000E174401F1030C06940A932FE0FF2CD9
:102C200050DCE4B20CF8034C4FF4B07440F2DB23F8
:102C300004FB06F403FB0844002CB8BF04F2FF3485
:102C4000B0EBA4243AD4FF2C3ADCE4B20CF8024CEA
:102C500040F2167404FB06F6002EB8BF06F2FF36EB
:102C600010EBA62028D4FF282EDCC0B20EF1010EF6
:102C7000BEF1100F0CF8010C0CF1030C26D0BAF9C0
:102C80008080BEF1080FA8F180080BFB08F408BF94
:102C900070370EF00100BAF90060002C0AEB400A10
:102CA00037F9020BB8BF04F2FF3410EBA424A6F1ED
:102CB0008006B4D50024B5E70020D7E70024C5E797
:102CC000FF24C3E7FF24ADE7FF20CFE709F10109A7
:102CD0004D45069C0A9B01F1300102F110028ED194
:102CE0000398DDF814A095E44FEA590A0AF1200A86
:102CF00007EB0A1A80378AE7029BC3E90006B9E6A8
:102D00000520FFF7DFBB5B42DBB2002B3FF4BFAA1D
:102D10001DE600BF032200232DE9F04383B08DF8A8
:102D200005208DF807308DF8060004F05DFB4CF2AD
:102D300050334FF0FF346FF0004210EB030841F1C5
:102D40000006444572EB060338BF16464FF00009F3
:102D500038BFA046174F184C7B6A9E4207D8BA6A04
:102D6000424502D303B0BDE8F0839E42FAD1052567
:102D700049EC405001220DEB050120460AF0E4F831
:102D80000DF10601012220460AF0DEF8012320465B
:102D90000DEB05010DF107020AF0AAF84FF001034F
:102DA00043EC40509DF80730DB07DBD4012004F0F2
:102DB0008DFAD1E700000B40000008402DE9F047F4
:102DC0000227394C82B02046384908F0AFFF384B13
:102DD00062685F602368374E374D83F007033A40DF
:102DE00003F0CF03336001216A60042003F092F9FD
:102DF0000121062003F08EF90121072003F08AF952
:102E0000052003F015FA05234FF0010242EC44308F
:102E100042EC4030032003F00BFA03234FF0000292
:102E200042EC443004F0E0FA4FF0FF346FF000421F
:102E30000025224BA94610EB030841F1000644454A
:102E400072EB06033CBFA04616461D4FDFF858A0A4
:102E50007B6A9E4207D8BA6A424502D302B0BDE8F7
:102E6000F0879E42FAD1FF2305248DF806308DF8B5
:102E7000073049EC4040012350460DF107020DF1A7
:102E800006010AF035F84FF0010343EC40409DF88D
:102E90000730FF2B06D0002DE0D10125012004F0E2
:102EA00015FAD5E70025F9E700000840801D2C043D
:102EB000003008400010084000200840809698002C
:102EC00000000B402DE9F04383B007460D464FF05C
:102ED0000508FFF71FFF4FF0000343EC408001247B
:102EE000134E22460DF1070130468DF807400AF0D7
:102EF0002BF822460DF1070130468DF807700AF0D5
:102F000023F822460DF1070130468DF807500AF0EC
:102F10001BF82D0A224630460DF107018DF80750A7
:102F20000AF012F844EC408003B0BDE8F08300BF23
:102F300000000840F0B583B00446FFF7EBFE002325
:102F400005228DF80330ADF8043043EC4020022315
:102F500001220DEB03013B488DF8023009F0F4FF2C
:102F600001220DF1020137488DF8024009F0ECFF13
:102F700004F03AFA4CF250334FF0FF356FF0004254
:102F8000C61841F10004B54272EB040338BF144681
:102F90004FF0504738BF2E462B4D6B6A9C420CD8E1
:102FA000AA6AB24207D305234FF0010242EC403037
:102FB000AA2003B0F0BD9C42F5D17B681A0704D467
:102FC0006420002104F06AF9E7E7012301AA0DF16A
:102FD00003011C4809F08CFF04F006FA4CF2503350
:102FE0004FF0FF356FF00042C61841F10004B542C2
:102FF00072EB040338BF14464FF0504738BF2E46DB
:10300000114D6B6A9C4204D8AA6AB242CBD29C4250
:10301000C9D17B681B0704D46420002104F03EF969
:10302000EFE70DF1050201230DF10301054809F059
:103030005FFF05234FF0010242EC4030BDF8040071
:1030400003B0F0BD0000084000000B4010B504467E
:10305000C020A1B2FFF736FFC4F30541C120BDE88F
:103060001040FFF72FBF00BF0146C220FFF72ABF65
:1030700038B504460D46C020A1B2FFF723FFC4F3C4
:103080000541C120FFF71EFF2946BDE83840C22098
:10309000FFF718BF0121C320FFF714BF014602202C
:1030A000FFF710BF70B504F09FF94FF0FF346FF0D9
:1030B0000042274D451941F10006AC4272EB060370
:1030C0003CBF16462546234C2620FFF733FFC20798
:1030D0000DD5626A964235D8A16AA94201D29642BC
:1030E00030D0034626221C491C4806F08BFA04F017
:1030F0007BF94FF0FF346FF00042154D451941F157
:103100000006AC4272EB06033CBF16462546114C46
:103110004920FFF70FFFC30719D5626A96420CD802
:10312000A16AA94201D2964207D0BDE87040034689
:1031300049220B49094806F065BA3220002104F003
:10314000ADF8E5E73220002104F0A8F8BCE770BD37
:10315000C0C62D0000000B40D4D00010E0D00010FD
:1031600018D1001070B501210520FFF7ABFE04F067
:103170003BF94FF0FF346FF00042134D451941F118
:103180000006AC4272EB06033CBF164625460F4CC8
:103190000520FFF7CFFEC30714D5626A96420CD80C
:1031A000A16AA94201D2964207D0BDE87040034609
:1031B00005220749074806F025BA3220002104F00D
:1031C0006DF8E5E770BD00BFC0C62D0000000B40E4
:1031D00024D10010E0D0001010B504460020A1B2A8
:1031E000FFF770FEC4F305410120BDE81040FFF772
:1031F00069BE00BF10B504462720A1B2FFF762FEEA
:10320000C4F305412820BDE81040FFF75BBE00BFB6
:1032100010B504464A20A1B2FFF754FEC4F305419D
:103220004B20BDE81040FFF74DBE00BF10B504466F
:103230004C20A1B2FFF746FEC4F305414D20BDE886
:103240001040FFF73FBE00BF01460420FFF73ABE23
:103250002DE9F04F83B0BDF8344017469A460194EB
:1032600081468846BDF830B004F0BEF84FF0FF3616
:103270006FF00042224C041941F10005A64272EBA6
:1032800005033CBF154634461E4E2620FFF752FE6E
:10329000C3070DD5726A95422CD8B16AA14201D2FA
:1032A000954227D0034626221749184806F0AAF966
:1032B0001FFA89F12020FFF705FE1FFA88F121206F
:1032C000FFF700FEB9B22220FFF7FCFD1FFA8AF1DA
:1032D0002320FFF7F7FD59462420FFF7F3FD01995E
:1032E0002520FFF7EFFD0121262003B0BDE8F04FB8
:1032F000FFF7E8BD3220002103F0D0FFC5E700BF93
:10330000C0C62D0000000B4038D10010E0D00010E6
:103310002DE9F04F85B0DDE90EB40094109C1646FF
:103320000194119C1D460294BDF8484080460394C8
:103330000F4604F059F84FF0FF346FF000422A4B6B
:1033400010EB030941F1000A4C4572EB0A033CBF44
:103350009246A146254C4920FFF7ECFDC3070DD549
:10336000636A9A453AD8A26A4A4501D29A4535D04D
:10337000034649221E491F4806F044F91FFA88F106
:103380004020FFF79FFDB9B24120FFF79BFDB1B28E
:103390004220FFF797FDA9B24320FFF793FD1FFAE4
:1033A0008BF14420FFF78EFDBDF800104520FFF79C
:1033B00089FDBDF804104620FFF784FDBDF8081014
:1033C0004720FFF77FFD03994820FFF77BFD012190
:1033D000492005B0BDE8F04FFFF774BD3220002151
:1033E00003F05CFFB7E700BFC0C62D0000000B4034
:1033F00050D10010E0D0001038B5102002F018FFB6
:103400000024102044EC44000121224602F0A0FEDA
:10341000112002F00DFF112044EC4400012122464E
:1034200002F096FE122002F003FF122044EC44004A
:103430000121224602F08CFE132002F0F9FE132037
:1034400044EC44000121224602F082FE142002F0E6
:10345000EFFE142044EC44000121224602F078FEE5
:10346000152002F0E5FE152044EC4400012122461F
:10347000BDE8384002F06CBE4FF0504358685B68BE
:1034800080F480309A034FF050435B68C0F30040F3
:1034900058BF40F002005B034FF050435B6858BFD9
:1034A00040F0040019034FF050435B6858BF40F0F0
:1034B0000800DA024FF050435B6858BF40F010003C
:1034C0009B0258BF40F02000704700BF00232DE949
:1034D000F04706688B758269002A00F0A380C26AF3
:1034E000054601320C4600F09F80F2681088E8B172
:1034F0001F464FF00208994637B900F520539BB29A
:10350000B3F5006FC0F0AC8040F2B51140EA07405F
:1035100002F07CFDFF28C9F1FF0A40F28C80BAF16D
:10352000010F00F29F804FF0000A0FB14FF0000A28
:103530000023A2448AF81630E869A17D0378202B85
:1035400077D0052B08BFE523012263724378202B37
:1035500005D0052B08BFE523A5186B7201328378CF
:10356000202B05D0052B08BFE523A5186B7201326F
:10357000C378202B05D0052B08BFE523A5186B7257
:1035800001320379202B05D0052B08BFE523A518B0
:103590006B7201324379202B05D0052B08BFE52340
:1035A000A5186B7201328379202B05D0052B08BF3B
:1035B000E523A5186B720132C579202D00F09580A6
:1035C000052D08BFE525A618531C7572027A202A1E
:1035D00009D0052A08BFE5222E275D1CE6182544E0
:1035E000777202336A72427A202A70D0052A08BFA5
:1035F000E522E5186A72827A0133202A3BD0052A37
:1036000008BFE522002523449D725A72002937D055
:10361000C37A03F03F032372C3692360C38AE38044
:10362000038BA380BDE8F087E86919460378202B57
:1036300087D100228AE7E0B1BAF1000F3FF475AFFD
:10364000012304EB090290750027F268994432F8CF
:10365000080008F1020800287FF44EAFCA4664E76C
:103660000746F4E704EB0902030A9375D0750223B9
:10367000EAE7824659E7002223445A720029C7D15B
:10368000637AE3B1082504F109020CE0192903F17A
:10369000200603D8017B0D4200D0F3B25373537858
:1036A000511C53B10A462E2BA3F14101EED15373A5
:1036B00053781025511C002BF4D1131B083B00221A
:1036C00023449A75037B002BA2D16372A0E7827A10
:1036D000202A94D10025E2185572002998D1002B98
:1036E000CED13F220123A275E9E713466EE700BF62
:1036F00070B5037904465BB92378032B23D00022ED
:1037000060781146FDF75AFE003818BF012070BDE1
:1037100000F13805426B012329464078FDF74CFE45
:10372000002835D1666BA36A226AF31A934220718E
:10373000E2D2E378022BDFD10123294660783244BC
:10374000FDF73AFED8E76579012DD8D104F13806A6
:103750004FF400720021304609F058F84AF655201F
:103760000C4AA4F83602A263D4E90420C4F8242247
:10377000626A094B0132C4F81C32C4F820022B469D
:10378000314660786263FDF717FE00236371B6E788
:10379000012070BD5252614172724161426B8A4296
:1037A00001D10020704770B5044603790D4640787A
:1037B00004F138065BB92A4601233146FDF7A0FD26
:1037C00000281CBF4FF0FF350120656370BD012349
:1037D0003146FDF7F1FD88B9616BA36A226ACB1A05
:1037E000934220716078E6D2E378022BE3D10A4459
:1037F00001233146FDF7E0FD6078DCE7012070BD74
:103800002DE9F84F06780446022E0D46904642D028
:10381000032E2AD0012E56D1816A05EB550901EB02
:103820005921FFF7BBFF0746E0B909F1010BEB0790
:10383000C9F3080904F1380A5FFA88F14FEA5B22FC
:1038400045D51AF80930204603F00F0343EA011367
:103850000AF80930A16A26711144FFF79FFF00287A
:103860004ED007463846BDE8F88F816A01EBD51186
:10387000FFF794FF07460028F4D10121AD0004F1C1
:10388000380205F4FE755359384668F31B0353514B
:103890002171BDE8F88F816A01EB1521FFF77EFFEA
:1038A00007460028DED101216D0004F1380305F43C
:1038B000FF7503F80580C8F307222B445A70217165
:1038C0003846BDE8F88F02273846BDE8F88F0AF879
:1038D0000910A16A204626711144FFF75FFF0028F6
:1038E000BFD1CBF3080B1AF80B30C8F3032223F037
:1038F0000F03DA44134301228AF800302271B1E742
:10390000CBF3080BDA44C8F30713F4E7012919D9FC
:10391000C269F8B591420C46064611D20278022AD5
:1039200021D0032A10D0012A0AD1816A04EB540560
:1039300001EB5521FFF732FF10B34FF0FF30F8BD18
:103940000120F8BD01207047816A01EBD411FFF717
:1039500025FF0028F1D1A40004F4FE743319986BFC
:1039600020F07040F8BD816A01EB1421FFF716FFCB
:103970000028E2D1600000F4FF703044008FF8BDF1
:10398000B16A6F1CC5F308053544304601EB572179
:1039900095F83850FFF702FF0028CED1C7F308078B
:1039A000374497F8383045EA0320E3074CBF000955
:1039B000C0F30B00F8BD00BF2DE9F04105690446D6
:1039C0002035B5F5001F066804D30023A361042049
:1039D000BDE8F0818369002BF9D0C5F30807EFB982
:1039E00041690133836101B37389013B13EA5528AF
:1039F00014D13046FFF78AFF01281DD9431C19D086
:103A0000F3699842E1D2023B60610238984203D2E6
:103A10007289336B00FB0238C4F8188038363E4494
:103A200000202561E661BDE8F0813389B3EB551FC5
:103A3000F4D8CAE70120CBE70220C9E770B54FF000
:103A4000FF360023B14204460371466330D194F837
:103A50003830B4F83652EB2B0AD01833DBB2012BD6
:103A600006D94AF6552085420CBF0220032070BDBE
:103A70004AF655239D4209D0B4F843305A1E1A42E3
:103A800002D1B3F5007F21D0032070BD0822244964
:103A900004F18A0009F076F80028E8D0B4F8433041
:103AA0005A1E1A4202D1B3F5007F31D0022070BDF8
:103AB0000D460A460123407804F13801FDF720FC49
:103AC00010B10420666370BD6563C0E794F84530AB
:103AD000002BD9D05A1E1A42D6D1B4F84630002B4A
:103AE000BFD094F84830013B012BBAD8B4F8493024
:103AF000002BB6D0B4F84B307F2B03D8A36DB3F5B1
:103B0000803FAED3B4F84E30002BAAD0002070BD59
:103B100094F84530002BC9D05A1E1A42C6D1DCE7B2
:103B200068D10010F8B5002304680B60002C00F089
:103B3000B180264602E03A2B00F0A48016F8013B43
:103B40001F2BF8D88F4B1B788F4850F82340002C40
:103B500000F0B1800C602378607802F0FE0553B16C
:103B6000FDF7C4FBC20705D415B1430700F1A180DE
:103B70000020F8BD607800232370FDF75BFAC707CB
:103B800000F18A8015B1460700F19380002120469C
:103B9000FFF754FF022867D0042800F0888001282E
:103BA0006ED8B4F84330616BB3F5007F68D1B4F8D8
:103BB0004E0000B9E06D94F848202062531E012B9E
:103BC000E2705DD894F845306381002B58D05D1EBB
:103BD0001D4255D1B4F849603507268150D1B4F85B
:103BE0004B5005B9A56DB4F846C0BCF1000F47D0E5
:103BF00000FB02F20CEB16171744BD4240D3ED1B3D
:103C00009D42B5FBF3FE3BD3604B9E4538D80CEB91
:103C100001034FF6F57CE6450F440EF1020576D818
:103C200040F6F57CE64561622763E561A36263D9EE
:103C300036B31A4402236D0005F2FF15B0EB552F81
:103C4000E2621DD34FF0FF328021C4E9042261718A
:103C500000214F4A237013884E4801339BB21380D2
:103C6000E380E060A16183E7D4F8FE11D4F80E622E
:103C7000D4F81E52D4F82E72F9B936BB75BB6FB9A1
:103C80000D20F8BD2378303BDDB2092D02D8023477
:103C9000A6422DD00B20F8BD0320F8BD39462046A2
:103CA000FFF7CCFE01287FF67CAF0428E8D1012085
:103CB000F8BD0A20F8BD0C20F8BD2046FFF7BEFE77
:103CC00001287FF66EAF002ED8D031462046FFF790
:103CD000B5FE01287FF665AF002DD0D029462046DD
:103CE000FFF7ACFE01287FF65CAF002FC8D0D5E708
:103CF000032BCFDC066027E7002EC1D01A4405EB6A
:103D0000450305F0010505EB5305012394E7A36284
:103D1000B4F8623027633343E5616162B0D1AB0030
:103D2000626E03F2FF13B0EB532FE262A8D34FF0A1
:103D3000FF338020B4F86820C4E90433012A60719D
:103D400001D0032384E720460131FFF727FD002837
:103D5000F7D14AF65522B4F8361260719142F0D18B
:103D6000A26B0D4B9A42ECD103F1FF53D4F81C2205
:103D700003F5005320339A4204BFD4E98823C4E9F1
:103D80000432DEE7CE700020A0190020F5FFFF0FFF
:103D9000C6700020B0190020525261412DE9F04F49
:103DA000D0F818B00446076883B0BBF1000F33D0D9
:103DB0004FF0FF0AD04607F138097A6B5A4514D004
:103DC0003B797878002B77D101235A464946FDF795
:103DD00097FA40B14FF0FF337B6301200023A361CA
:103DE00003B0BDE8F08FC7F834B0E1690A789AB142
:103DF000CB7AE52A03F03F03A37105D02E2A03D026
:103E000023F02000082846D14FF0FF08256920350F
:103E1000B5F5001F266801D30420DFE7D4F818B0F9
:103E2000BBF1000FF8D0C5F3080323B138361E44A8
:103E30002561E661C1E761690BF1010BC4F818B0B7
:103E400051B93389B3EB551FE6D938362561E661A0
:103E5000BBF1000FB1D1D6E07389013B13EA5523C2
:103E6000F3D130460193FFF751FD012840F2CD8098
:103E7000431CB2D0F2699042CED2023A606102385D
:103E80009042019B80F0BB807289336B00FB023B48
:103E9000C4F818B0D9E70F2B40F00C815006256903
:103EA00024D591F80DA0E5624B7B02F0BF08534585
:103EB00021D04FF0FF08AAE701234946FDF77CFA1D
:103EC00000288AD1796BBB6A3A6ACB1A934238715F
:103ED0007878BFF479AFFB78022B7FF475AF0A4492
:103EE00001234946FDF768FA78786DE74245E0D14D
:103EF0004B7B5345DDD14B8B002BDAD10B7823F074
:103F00004003013B03EB430203EB8203FF2BB1F8B9
:103F10000120CED8F8684FEA430C20F81320B1F8FE
:103F20000360002A73D0FF2B03F10102C1D020F8F7
:103F30001260B1F805E05200002E6FD0FE2BB8D011
:103F40000244A2F802E0B1F80760BEF1000F6CD0A5
:103F5000FD2BAED09680B1F809E0002E6CD0FC2B82
:103F6000A7D0A2F806E0CE89BEF1000F6AD0FB2BE5
:103F70009FD01681B1F810E0002E6AD0FA2B98D0AD
:103F8000A2F80AE04E8ABEF1000F68D0F92B90D05B
:103F90009681B1F814E0002E68D0F82B89D0A2F8F1
:103FA0000EE0CE8ABEF1000F66D0F72B81D01682CC
:103FB000B1F818E0002E66D0F62B3FF47AAFA2F8E5
:103FC00012E08E8BBEF1000F63D0F52B3FF471AF82
:103FD0009682B1F81EE0002E62D0F42B3FF469AF58
:103FE000A2F816E00A7852065FD5BEF1000F5CD049
:103FF000F32B3FF45EAF00236044438355E0383633
:10400000A3612561E6610020EAE60220E6E64FF6BC
:10401000FF739E427FF44DAFB1F805E04FF6FF739A
:104020009E457FF446AFB1F807604FF6FF739E429E
:104030007FF43FAFB1F809E04FF6FF739E457FF480
:1040400038AFCE894FF6FF739E427FF432AFB1F89E
:1040500010E04FF6FF739E457FF42BAF4E8A4FF66C
:10406000FF739E427FF425AFB1F814E04FF6FF7363
:104070009E457FF41EAFCE8A4FF6FF739E427FF4BB
:1040800018AFB1F818E04FF6FF739E457FF411AFFB
:104090008E8B4FF6FF739E427FF40BAFB1F81EE09C
:1040A0004FF6FF739E457FF404AF08F1FF385FFAC7
:1040B00088F8ACE6B8F1000F48D10B78DA0142EA93
:1040C00053024B781A44C2F3460343EAC2138A7878
:1040D00052FA83F3C3F3460242EAC312CB7853FA8F
:1040E00082F2C2F3460343EAC2130A7952FA83F317
:1040F000C3F3460242EAC3124B7953FA82F2C2F387
:10410000460343EAC2138A7952FA83F3C3F34602A1
:1041100042EAC312CB7953FA82F2C2F3460343EA6E
:10412000C2130A7A52FA83F3C3F3460242EAC31275
:104130004B7A897A53FA82F2C2F3460343EAC213F6
:1041400051FA83F3DBB29A453FF45DAF4FF0FF3392
:10415000E36258E72DE9F8430023846806460768C0
:1041600003618CB93B78022B0AD83B895BB3FB6AAD
:10417000C6E905433BB338370020F761BDE8F88353
:10418000FB6A002BF1D01C467B89002B5FD1012CF0
:1041900019D03D46EB69A34215D92B78022B2BD0C1
:1041A000032B13D0012B0ED1A96A04EB5408284627
:1041B00001EB5821FFF7F2FA60B30120BDE8F88364
:1041C0000023C6E905430220BDE8F883A96A284612
:1041D00001EBD411FFF7E2FA0028EED1A30003F4BB
:1041E000FE732B449C6B24F07044012CEBD9FB69CB
:1041F000A342E8D93568CDE7A96A284601EB142126
:10420000FFF7CCFA0028D8D1630003F4FF732B44E6
:104210001C8FEAE7A96A08F10109C8F30808A84455
:10422000284601EB592198F83880FFF7B7FA0028A3
:10423000C3D1C9F30809A94499F8383048EA0328DA
:10424000E3074CBF4FEA1814C8F30B04CDE7FA6933
:10425000A11E023A9142B3D23A6B01FB032387E7D6
:104260002DE9F04F87B004460668FFF773FF8146DB
:10427000E0B94FF0FF0B4FF0FF375D46D4F818A0C0
:1042800006F13808E762726B524515D033797078C1
:10429000002B40F09080012352464146FDF730F854
:1042A00040B14FF0FF3373634FF00109484607B048
:1042B000BDE8F08FC6F834A0E269117899B1D37ADD
:1042C000E52903F03F00A07103D01B072AD50F2872
:1042D0003BD0FF25E762236922682033B3F5001F36
:1042E00007D30023A3614FF00409484607B0BDE897
:1042F000F08FD4F818A0BAF1000FF4D0C3F3080976
:10430000B9F1000F09D161690AF1010AC4F818A0D6
:1043100071BB1189B1EB531FE3D938324A44236191
:10432000E261B0E70F2810D0002D5FD094F82B5039
:1043300015F00105CDD1104604F120010B2208F043
:1043400021FC0028C5D1A946B0E794F82B305B06C4
:10435000C1D4480640F19580236992F80DB001F070
:10436000BF01E362537B5B4500F09080FF25B2E71D
:104370005089013810EA5320CFD1104601930092A2
:10438000FFF7C4FA012840F2BD80431C8CD0009A8C
:10439000D1698842A5D202396061023888422EBFB5
:1043A000CA46B2F80AC0116B019B38BF00FB0C1A59
:1043B000C4F818A0B1E701234146FCF7FDFF00282F
:1043C0007FF472AF716BB36A326ACB1A9342307169
:1043D0007078BFF460AFF378022B7FF45CAF0A44CF
:1043E00001234146FCF7E8FF707854E713785078D2
:1043F000D90141EA53010144C1F34603907843EAED
:10440000C11350FA83F3C3F34601D07841EAC311D4
:1044100050FA81F1C1F34603107943EAC11350FA0F
:1044200083F3C3F34601507941EAC31150FA81F195
:10443000C1F34603907943EAC11350FA83F3C3F3FF
:104440004601D07941EAC31150FA81F1C1F3460324
:10445000107A43EAC11350FA83F3C3F34601507A4A
:1044600041EAC31150FA81F1C1F34603907A43EA5D
:10447000C11350FA83F3DBB29B457FF457AFA946D3
:1044800014E78D423FF46EAFFF2524E7538B002BDA
:104490007FF46CAF1578DFF8989005F03F05013D8B
:1044A00005EB450305EB8305F368CDE900B60294FF
:1044B00001201E461446059309F10D0A0491CDF81A
:1044C0000C8010E0FF2D18D8404601F0CFFD834648
:1044D00036F8150001F0CAFD834505F101050CD140
:1044E0004046CA4511D019F8013B34F80380002832
:1044F000E8D14FF6FF739845F3D0DDE900B6DDE96A
:10450000024833E74FF00209D0E62246DDE900B663
:10451000DDE90248137804995A0606D528B1059BAF
:1045200033F81530002B7FF421AF0139CDB2D2E63C
:10453000540D02102DE9F04F0B780D462F2B074636
:10454000D0F800B085B010D05C2B0ED0DBF818305E
:10455000BB6028781F2816D88023384687F82B3070
:1045600005B0BDE8F04FFFF7F5BD2A4613781546B4
:104570002F2B02F10102F9D05C2BF7D00023BB6096
:1045800028781F28E8D95B46D3F80C9030B900236F
:10459000A9F80030062005B0BDE8F08F0024DFF850
:1045A00058830135A9F1020A40F2B51101F04AFD24
:1045B00006460028EED01F2816D92F2800F080814B
:1045C0005C2800F07D817F2805D84046314608F000
:1045D0006FF90028DED1FF2CDCD02AF8026F15F825
:1045E000010B01340028DFD1012C4FF0040614D058
:1045F000022C40F07881B9F802302E2B00F0238194
:1046000009EB440232F8023D202B01D02E2B1ED1A3
:10461000013CF7D1A9F80040BCE7B9F800302E2BD7
:10462000EED10023A9F80230202387F8213042F28E
:1046300020037B843B854FF020332E227B62202396
:1046400046F0200687F8202087F82A305EE04FF0F9
:10465000000329F81430B9F8003009EB4401202B8D
:1046600040F0B180002209F10203184633F802CB72
:104670009046BCF1200F02F10102F6D008F10208C9
:1046800046F003060B4601E0013C03D033F8022D4F
:104690002E2AF9D14FF020337B623B62C7F82730D6
:1046A0000188002900F0FC80082228464FF0000A0B
:1046B00025465B465446BB464F4691460246202956
:1046C00052D02E2959D04C4565D3B9F10B0F00F0CB
:1046D000C380A84556D046F0030653D95F469B4693
:1046E00097F820301546E52B08BF05234A4608BF3A
:1046F00087F82030082A6DD00AF00C030C2B03D069
:104700000AF00303032B6DD146F00206384687F802
:104710002B60FFF7A5FD97F82B3068B104287FF4D4
:104720003AAF990603F0040240F1BE80CAB180237B
:1047300087F82B3000202EE75A07FBD4BB79DB0625
:1047400040F1B0803B699BF80010C3F308020BF105
:104750003803134403295A8B04BF9B8A42EA03425D
:10476000BA603B6828780FE746F0030637F8181060
:1047700008F101080029A2D1B0E7A845F4D1B9F1A8
:104780000B0F69D04FEA8A0AA8464FF00B0908249C
:104790005FFA8AFAEAE7A845F1D07F2932D854486F
:1047A000CDE90232019108F083F8DDE90113039AA3
:1047B00000283FD05F2146F003060BEB040080F891
:1047C00020100134D2E72E2B48464FF001087FF429
:1047D00059AF55E74FEA8A0C0CF00C030C2B5FFA2B
:1047E0008CFA91D006F00203002B8FD14AF300031C
:1047F00003F010031E431AF0040F1CBF46F0080616
:10480000F6B283E7CDE90132084646F0020340F2F2
:10481000B511039301F0FAFBDDE9013210F0800FCE
:10482000014623D000F07F013248415C039E0029FD
:10483000C0D0B4E7A1F1410080B2192826D84AF0CF
:10484000020AC9B2B9E7B9F800302E2B7FF4D8AE0E
:104850000022A9F80420E8E65F469B4697F820303E
:104860001546E52B28D046F0030645E7FF28DDD99D
:1048700009F1FF3084421BD20BEB04004FEA112CEC
:10488000039E013480F820C0C9B296E7A1F161000F
:1048900080B219289CBF20394AF0010AC9B28CE7BE
:1048A0008A469FE7052076E6002A08BF052072E6C3
:1048B0004C4646F0030659E7052387F82030D2E737
:1048C0002A46137815462F2B02F10102F9D05C2BF2
:1048D000F7D01F2B8CBF00230123012C4FEA830646
:1048E0007FF486AE99E6002C7FF48AAE4FE600BFD7
:1048F00080D10010D40C021074D10010B1F5001F4B
:104900002DE9F84FD0F8009014D2CA060C4611D108
:1049100085680746016185B1B9F80A30B4EB432FC9
:104920004FEA4328C0F08380012D03D04E46F3693F
:10493000AB421DD80220BDE8F88F99F80030022B59
:1049400052D8B9F80830B3EB541FF3D9D9F82C205A
:10495000C7E90552002AEDD009F13809C4F308036C
:104960004B4402EB54220020C7E90623BDE8F88F30
:104970003378022B2AD0032B0DD0012BDAD1B16A68
:1049800005EB550A304601EB5A21FEF707FF88B3C5
:104990000120BDE8F88FB16A304601EBD511FEF772
:1049A000FDFE0028F4D1AB0003F4FE7333449D6B8D
:1049B00025F07045012DBDD9D9F81C30AB42B9D9CD
:1049C000A4EB0804A04534D83E68B0E7B16A30468D
:1049D00001EB1521FEF7E2FE0028D9D16B0003F4AC
:1049E000FF7333441D8FE5E7D9F82C30002BA8D096
:1049F0001D4691E7B16A0AF1010BCAF3080AB244F5
:104A0000304601EB5B219AF838A0FEF7C7FE00287C
:104A1000BED1CBF3080BB3449BF838304AEA032AE3
:104A2000EB074CBF4FEA1A15CAF30B05C2E7D9F8DA
:104A30001C30023BA91E994206D2B9F80A30D9F8B7
:104A4000302001FB032283E70023C7E9055371E708
:104A50002DE9F84F06468946056811BBD5E9048360
:104A6000B8F1000F08D11BB1EB69022B00F2E18015
:104A700000242046BDE8F88FEA694245F3D9002BAF
:104A8000F6D008F10104A24264D8B8F1010FEFD0CA
:104A900002243768FB69A34260D801242046BDE8A0
:104AA000F88F2846FEF732FF01280446F5D9411C4D
:104AB00035D0EB698342DCD86A69002AD8D009F185
:104AC0000107BB428CBF3C46022430682146FEF7FA
:104AD0001DFF0128E1D0421C21D0EB69002840F0E5
:104AE0008A80002C00F08E80A342D6D94FF0FF328E
:104AF00021462846FEF784FE78B9B9F1000F5DD053
:104B0000B9F1010FC9D0EB699945C6D22246494691
:104B10002846FEF775FE002850D00128BDD14FF081
:104B2000FF34A6E7B96A384601EBD411FEF736FE2A
:104B30000028F4D1A30003F4FE733B449B6B33F0D5
:104B4000704368D0012BA8D0A04591D0EB69013407
:104B50009C429AD23768FB69A3429ED93B78022BCC
:104B600039D0032BDED0012B97D1B96A04EB540A5C
:104B7000384601EB5A21FEF711FE0028CFD1B96A61
:104B80000AF1010BCAF3080ABA44384601EB5B216B
:104B90009AF838A0FEF702FE0028C0D1CBF3080B2C
:104BA000BB449BF838304AEA032AE3072FD55FEA73
:104BB0001A1A30D0BAF1010FC6D16EE7EB696A69F3
:104BC000023B9A422C6101D8013A6A616B7943F049
:104BD00001036B714DE7B96A384601EB1421FEF70A
:104BE000DDFD00289BD1630003F4FF733B441B8F62
:104BF000002BA7D10FE0D5F81080B8F1010F01D933
:104C0000984510D39F423C4607D3C8463DE7CAF3B8
:104C10000B03002B96D1EB6966E7012C37687FF612
:104C20003CAFC84697E708F101049C42BFF430AF9F
:104C300090E74FF0010802248CE700BF2DE9F04F08
:104C400090F82BC08FB01CF0A00240F02E830768B4
:104C50000446FE68338833B11346324632F8021FE9
:104C600001330029FAD10DF12C0A04F120051CF0C2
:104C7000010F95E807008AE8070036D11CF0020C06
:104C8000019700F0BD81C74A0C33A2FB03234FEA12
:104C9000930909F1010320460293FFF75BFA0646E8
:104CA000002840F0B7818346A1690198CDE90497B7
:104CB0000695FEF773FD002840F05A82E3691B78E1
:104CC000E52B00F05A82002B00F0578283462669BC
:104CD00025682036B6F5001FC0F02E820023A361A0
:104CE000072630460FB0BDE8F08F4FF00109402293
:104CF00001934FF07E0B33464E46E146DFF8A88223
:104D000084F82B20AE469AE80700AEE80300052E93
:104D10002EF8022B4FEA12428EF8002040F2C98191
:104D20001A883146002A00F0A5809C4602F0010056
:104D300000EB41004FEA520E090448BF80EA080028
:104D40000EF0010E0EEB400E9108030448BF8EEAF0
:104D5000080E01F0010000EB4E001EF4004F4FEA78
:104D6000D20118BF80EA080001F0010101EB400107
:104D70004FEA121E000448BF81EA08010EF0010E3E
:104D80000EEB410E0B044FEA521048BF8EEA080E9C
:104D900000F0010000EB4E001EF4004F4FEA9211AC
:104DA00018BF80EA080001F0010101EB40014FEA61
:104DB000D21E000448BF81EA08010EF0010E0EEB7E
:104DC000410E0B044FEA122048BF8EEA080E00F095
:104DD000010000EB4E001EF4004F4FEA522118BFB5
:104DE00080EA080001F0010101EB40014FEA922E38
:104DF000000448BF81EA08010EF0010E0EEB410EDF
:104E00000B044FEAD22048BF8EEA080E00F00100E2
:104E100000EB4E001EF4004F4FEA123118BF80EA3B
:104E2000080001F0010101EB40014FEA523E00048D
:104E300048BF81EA08010EF0010E0EEB410E900B07
:104E4000090448BF8EEA080E00F0010000EB4E0096
:104E50001EF4004F4FEAD23118BF80EA08003CF838
:104E6000022F01EB4001030448BF81EA0801002A38
:104E70007FF45CAF01F00F0000F13002392A88BFE7
:104E800000F137020F294FEA111C8DF82B2040F258
:104E900014810CF00F0E0EF13002392A88BF0EF18A
:104EA0003702BCF10F0F4FEA11208DF82A2040F293
:104EB000948100F00F0E0EF13002392A88BF0EF1F6
:104EC00037020F284FEA113C8DF8292040F2D88193
:104ED0000CF00F0E0EF13002392A88BF0EF13702A6
:104EE000BCF10F0F4FEA11408DF8282040F2BE812F
:104EF00000F00F0E0EF13002392A88BF0EF1370292
:104F00000F284FEA115C8DF8272040F29F810CF0AA
:104F10000F000A0E00F13001392988BF00F1370176
:104F2000BCF10F0F8DF8261040F2B381002102F082
:104F30000F0202F13000392888BF02F137000A461B
:104F40008DF825008DF824B001F138030DEB030036
:104F500010F814CC062A05F802C010F813CC05EBA3
:104F6000020080F801C001F1020002F1020C0ED033
:104F700008281BD12021052A05F80C1002F1030096
:104F800005D0C0F108022021284407F03FFC20464C
:104F9000FFF766F930BB0136642E3FF4A1AEFB6823
:104FA000B0E600BF4FECC44E2110010000F1380301
:104FB0000DEB030010F8140C052A05F80C0001F1A4
:104FC000030002F1030CE2D008282AD12021042A90
:104FD00005F80C1002F10400D3D12046FFF740F988
:104FE0000028D8D00428CC460646019B7FF479AE31
:104FF000226884F82BC01CF0020C01927FF443AEAF
:1050000001232046E1460293FFF7A4F80646002854
:105010003FF449AE04283FF463AE30460FB0BDE81C
:10502000F08F00F138030DEB030010F8140C042A84
:1050300005F80C0001F1040002F1040CA7D00828C7
:1050400007D12021032A05F80C1002F1050098D1A0
:105050009DE700F138030DEB030010F8140C032A50
:1050600005F80C0001F1050002F1050C8FD00828AD
:1050700007D12021022A05F80C1002F1060080D188
:1050800085E700F138030DEB030010F8140C022A39
:1050900005F80C0001F1060102F106003FF477AFBC
:1050A000082936D12021012A29543FF470AF072066
:1050B00067E706F130028DF82B2094F820208DF858
:1050C0002AB0202A08BF002200F0858094F8212011
:1050D000202A08BF01227ED094F822200621202A0F
:1050E00000F0E18094F82320202A00F0E3800429D6
:1050F00000F0868094F82420202A00F046820629B9
:1051000040F0408294F82520202A14BF0622052270
:105110001AE701F138030DEB030C1CF814CC05F869
:1051200000C0002A7FF433AF062914BF20229DF867
:105130002B2084F827202AE7A16900293FF4D0AD6D
:10514000C6F308074FB963690131A161002B59D13A
:105150002A89B2EB561F40F21A8205F138094F44F2
:1051600001982661E761FEF719FB00283FF4A6AD20
:10517000042806463FF4B4ADB3E5029B0BF1010BE6
:105180005B457FF4A4AD069DDDE90497B9F1000FFE
:1051900040F092803846A169FEF700FB06460028E1
:1051A0007FF49FAD01462022E06907F02FFB2B46DC
:1051B0004FF0010C03CBE2691060516019889B78B5
:1051C0001181937294F82B30E26903F01803137382
:1051D00087F804C085E50621B6E67E228DF82920F1
:1051E00094F820200521202A48D094F82120202A54
:1051F0003AD094F82220202A55D003297FF472AFA8
:105200000A46A1E66A89013A12EA5622A5D1194650
:105210002846FEF77BFB0128804640F20082B0F171
:10522000FF3F00F0F981EA69904280F0B381831E6C
:1052300005F13809023A9A42C4F8148040F2F48128
:105240006A89296B03FB0211A16188E77E228DF830
:10525000262094F82020202A08BF02210ED094F89E
:1052600021200221202ACBD101226DE67E228DF859
:10527000272094F820200321202AB6D1002263E6BB
:105280007E228DF8282094F820200421202AACD1F9
:10529000F4E77E228DF8252094F820200121202A91
:1052A000ECD00A4650E602224EE6062630460FB003
:1052B000BDE8F08F032247E621692046A1EB4911A2
:1052C000FFF71CFB064600287FF40BAD94F8202066
:1052D00094F82110D30143EA52030B44C3F346026E
:1052E00094F8221042EAC31251FA82F2C2F3460342
:1052F00094F8231043EAC21351FA83F3C3F346022E
:1053000094F8241042EAC31251FA82F2C2F346031F
:1053100094F8251043EAC21351FA83F3C3F346020B
:1053200094F8261042EAC31251FA82F2C2F34603FD
:1053300094F8271043EAC21351FA83F3C3F34602E9
:1053400094F8281042EAC31251FA82F2C2F34603DB
:1053500094F8291043EAC21351FA83F3C3F34602C7
:1053600094F82A1042EAC31351FA83F3DBB24FF0E8
:105370000F084FF6FD7A4FF6FF7B019327E0A3F865
:1053800003B0A3F805B0A3F807B0A3F809B0A3F8D9
:105390000EB0A3F810B0A3F812B0A3F814B0A3F89D
:1053A00016B0A3F818B0A3F81CB0A3F81EB040F0D4
:1053B00040001870012320463B71FEF7FDFA0646B7
:1053C00000287FF48EACB9F101093FF4E3AE384612
:1053D000A169FEF7E3F90246064600287FF481AC96
:1053E000E369F9685FFA89F05A83019A461E5A7395
:1053F00006EB460206EB8202A3F80B8031F812603E
:1054000006F1FF3C1FFA8CFC5E70D4454FEA16266D
:105410009E704FEA4206B2D8013231F812C05200F3
:105420000CF1FF3E1FFA8EFE83F803C0D6454FEA0B
:105430001C2C83F804C0A4D80A44B2F802C00CF1B2
:10544000FF3E1FFA8EFE83F805C0D6454FEA1C2C9E
:1054500083F806C097D8B2F804C00CF1FF3E1FFADB
:105460008EFE83F807C0D6454FEA1C2C83F808C08F
:105470008BD8B2F806C00CF1FF3E1FFA8EFE83F8FF
:1054800009C0D6454FEA1C2C83F80AC03FF67FAF0F
:10549000B2F808C00CF1FF3E1FFA8EFE83F80EC072
:1054A000D6454FEA1C2C83F80FC03FF672AFB2F816
:1054B0000AC00CF1FF3E1FFA8EFE83F810C0D645DD
:1054C0004FEA1C2C83F811C03FF665AFB2F80CC050
:1054D0000CF1FF3E1FFA8EFE83F812C0D6454FEA4C
:1054E0001C2C83F813C03FF658AFB2F80EC00CF175
:1054F000FF3E1FFA8EFE83F814C0D6454FEA1C2CDF
:1055000083F815C03FF64BAFB2F810C00CF1FF3E68
:105510001FFA8EFE83F816C0D6454FEA1C2C83F87E
:1055200017C03FF63EAFB2F812C00CF1FF3E1FFAB3
:105530008EFE83F818C0D6454FEA1C2C83F819C09C
:105540003FF631AFB2F814C00CF1FF3E1FFA8EFEE9
:1055500083F81CC0D6454FEA1C2C83F81DC03FF6CB
:1055600024AFD28A02F1FF3C9A77120ADA771FFA47
:105570008CF252453FF61BAF8A19528B002A7FF4FA
:1055800018AF14E705210A46DEE40422DCE4A36137
:10559000FFF7A6BB20466169FFF75AFA804600284C
:1055A0003FF49EAB01283AD0B0F1FF3F34D02B79C5
:1055B00005F13809002B55D1EB699A1EA8F10203B9
:1055C00093423DD269892A6B484603FB01220021A0
:1055D00003926A634FF40072079307F017F96A8920
:1055E000079B52B349464FF0000AA1461C4604E00F
:1055F0006A890AF1010A924518D2039A0123687850
:1056000052440791FBF7D8FE07990028F0D02346B3
:105610006A894C4689460CE00126FFF762BB0226E8
:10562000FFF75FBBC4F8148000210DE623464C460B
:1056300089469245F0D1EA69FCE5C4F8148000E699
:105640004FF0000A4FF4007248465146C5F834A0A6
:10565000039307F0DBF86A89039B002AE2D0CDF8B8
:105660000CA0BFE7012349466A6B6878FBF7A4FEEC
:105670000028D1D1696BAB6A2A6ACB1A9342287190
:105680009AD2EB78022B97D10A44012349466878D5
:10569000FBF792FE90E700BF01292DE9F84F0C4679
:1056A00005680AD9EB698B4207D9064611463AB913
:1056B0002F464FF001089C4210D30220BDE8F88F1E
:1056C000012AFAD09342F8D94FF0FF322846FEF76C
:1056D00097F80028F2D13768FB69EAE73B78022B9C
:1056E00000F09080032B0FD0012BE6D1B96A04EBB8
:1056F0005409384601EB5921FEF750F8002800F014
:10570000A9800120BDE8F88FB96A384601EBD411B1
:10571000FEF744F80028F4D1A30003F4FE733B44E1
:10572000D3F8389039F0704900F0B180B9F1010F29
:10573000C3D0EB699C42C0D22F78022F53D0032FE5
:1057400029D0012FB9D1A96A04EB540A284601EBEC
:105750005A21FEF723F80028B0D10AF1010BE10726
:10576000CAF308034FEA5B2205F1380A5DD51AF83F
:105770000310284601F00F010AF80310A96A2F71DF
:105780001144FEF70BF8002898D1CBF3080B0AEB75
:105790000B03187014E0A96A284601EBD411FDF739
:1057A000FDFF00288AD1A40004F4FE7405F138023C
:1057B000115910530B0E224403F0F0039070D37074
:1057C000EA696B69911E8B4285F8048005D201332A
:1057D0006B616B7943F001036B714A4557D93768A8
:1057E0004C46FB6967E7A96A284601EB1421FDF7DF
:1057F000D5FF00287FF462AF640004F4FF742C44EA
:105800002087DDE7B96A384601EB1421FDF7C6FFB2
:1058100000287FF476AF630003F4FF733B44B3F8D2
:105820003890B9F1000F81D131E00AF80300A96A7C
:1058300028462F711144FDF7B1FF00287FF43EAFD9
:10584000CBF3080B1AF80B000AEB0B0300F0F00087
:105850001870B5E7B96A09F1010AC9F30809B94432
:10586000384601EB5A2199F83890FDF797FF002848
:105870007FF447AFCAF3080ABA449AF83830E00711
:1058800049EA032905D55FEA19197FF44FAF0020D3
:1058900014E7C9F30B09B9F1000F7FF447AFF6E73E
:1058A00010B582B0CDE9001081B310468C4601E0FE
:1058B0003A2B21D01CF8013B1F2BF9D8164B93F83B
:1058C00000E07346154951F823201AB100241470E2
:1058D00041F82340019A2AB1002482F801E041F8FE
:1058E0002320147008B902B010BD0022684601A937
:1058F000FEF718F902B010BD0B78303B5FFA83FE5B
:10590000BEF1090F02D802318C4502D00B2002B043
:1059100010BD032BD6DDF9E7CE700020A0190020C2
:105920002DE9F04790B0019100287CD002F03F07AC
:105930000446164603A93A4601A8FEF7F3F80546C1
:1059400028B100232360284610B0BDE8F087DDF8B9
:105950000C80019904A8CDF81080FEF7EBFD80B90A
:105960009DF93B30002B63DB16F01C0F9DF81630C1
:105970000ED013F0110F5DD1700740F18C80082517
:10598000DFE716F01C0F01D0042857D00546D8E7F2
:10599000DA0651D4B00701D5D9074BD40B9B0021AF
:1059A000D8F8342004F1280AC4E9082398F8002024
:1059B0005E8B032A08BF9A8A504608BF46EA024611
:1059C000A660D3F81C90B8F806304FF40072C4F803
:1059D0000080C4F80C90A38027746174E161616158
:1059E00006F014FFBA06AED5B9F1000FABD0B8F887
:1059F0000A30C4F81490B9EB432F4FEA432764D917
:105A0000404605E0431C00F082804F455DD220688F
:105A10003146FDF77BFF01280646A9EB0709F1D8BF
:105A2000A06102258DE70925284610B0BDE8F08762
:105A3000062586E7072584E7042582E704A8FFF703
:105A4000FDF80028A2D10B9A47F00807314BC2F8A5
:105A50000E300B9AC2F8163098F800200B9B032AE0
:105A600008BF9A8A5E8B08BF46EA02462022DA7295
:105A700000220B9B5A8398F80010032908BF9A82D2
:105A8000002201230B99CA6188F804304EB90B9BA0
:105A900047F0400783E70B9B31071A467FF57FAF3E
:105AA000D4E7314604A8D8F83490FFF7F5FD002874
:105AB0007FF46CAF49464046FDF770FE013EC8F8E2
:105AC00010600028E3D005463BE7C9F30803A66150
:105AD000002B3FF438AFD8F81C30023E023B9E4208
